{
  "abi": [
    {
      "inputs": [
        {
          "internalType": "address",
          "name": "_oracle",
          "type": "address"
        }
      ],
      "stateMutability": "nonpayable",
      "type": "constructor"
    },
    {
      "inputs": [],
      "name": "SafeCast__Exceeds128Bits",
      "type": "error"
    },
    {
      "inputs": [],
      "name": "Uint256x256Math__MulDivOverflow",
      "type": "error"
    },
    {
      "inputs": [
        {
          "internalType": "address",
          "name": "_strategy",
          "type": "address"
        },
        {
          "internalType": "address",
          "name": "_user",
          "type": "address"
        },
        {
          "internalType": "uint256",
          "name": "_posId",
          "type": "uint256"
        },
        {
          "internalType": "address",
          "name": "_token",
          "type": "address"
        }
      ],
      "name": "claimableAmount",
      "outputs": [
        {
          "internalType": "uint256",
          "name": "",
          "type": "uint256"
        }
      ],
      "stateMutability": "view",
      "type": "function"
    },
    {
      "inputs": [
        {
          "internalType": "address",
          "name": "_positionManager",
          "type": "address"
        },
        {
          "internalType": "address",
          "name": "_user",
          "type": "address"
        },
        {
          "internalType": "uint256",
          "name": "_posId",
          "type": "uint256"
        }
      ],
      "name": "getAllData",
      "outputs": [
        {
          "components": [
            {
              "internalType": "uint256",
              "name": "debtRatioE18",
              "type": "uint256"
            },
            {
              "internalType": "uint256",
              "name": "positionUSDValueE36",
              "type": "uint256"
            },
            {
              "internalType": "uint256",
              "name": "collateralValueE36",
              "type": "uint256"
            },
            {
              "internalType": "uint256",
              "name": "borrowValueE36",
              "type": "uint256"
            },
            {
              "internalType": "int256",
              "name": "netPnLE36",
              "type": "int256"
            },
            {
              "internalType": "address[]",
              "name": "netTokenAddrs",
              "type": "address[]"
            },
            {
              "internalType": "int256[]",
              "name": "netTokenAmts",
              "type": "int256[]"
            },
            {
              "internalType": "address[]",
              "name": "underlyingTokens",
              "type": "address[]"
            },
            {
              "internalType": "uint128[]",
              "name": "debts",
              "type": "uint128[]"
            },
            {
              "internalType": "uint256[]",
              "name": "sharingProfits",
              "type": "uint256[]"
            },
            {
              "components": [
                {
                  "internalType": "uint128",
                  "name": "collAmt",
                  "type": "uint128"
                },
                {
                  "internalType": "uint32",
                  "name": "startTimestamp",
                  "type": "uint32"
                },
                {
                  "internalType": "uint32",
                  "name": "positionDeadline",
                  "type": "uint32"
                },
                {
                  "internalType": "uint32",
                  "name": "startLiqTimestamp",
                  "type": "uint32"
                },
                {
                  "internalType": "enum PositionStatus",
                  "name": "status",
                  "type": "uint8"
                },
                {
                  "components": [
                    {
                      "internalType": "uint128",
                      "name": "inputAmt",
                      "type": "uint128"
                    },
                    {
                      "internalType": "uint128",
                      "name": "borrowAmt",
                      "type": "uint128"
                    }
                  ],
                  "internalType": "struct OpenTokenInfo[]",
                  "name": "openTokenInfos",
                  "type": "tuple[]"
                },
                {
                  "internalType": "uint128[]",
                  "name": "extraCollAmts",
                  "type": "uint128[]"
                },
                {
                  "internalType": "bytes",
                  "name": "extraPosInfo",
                  "type": "bytes"
                },
                {
                  "internalType": "uint256",
                  "name": "borrowId",
                  "type": "uint256"
                }
              ],
              "internalType": "struct HyperPosition",
              "name": "positionInfo",
              "type": "tuple"
            },
            {
              "components": [
                {
                  "internalType": "uint256[]",
                  "name": "binIds",
                  "type": "uint256[]"
                },
                {
                  "internalType": "uint256[]",
                  "name": "liquidities",
                  "type": "uint256[]"
                }
              ],
              "internalType": "struct JoeV2_1ExtraPosInfo",
              "name": "extraPosInfo",
              "type": "tuple"
            },
            {
              "internalType": "uint256[]",
              "name": "spotUnderlyingAmts",
              "type": "uint256[]"
            }
          ],
          "internalType": "struct HyperStellaJoeV2_1Reader.AllData",
          "name": "allData",
          "type": "tuple"
        }
      ],
      "stateMutability": "view",
      "type": "function"
    },
    {
      "inputs": [
        {
          "internalType": "address",
          "name": "_positionManager",
          "type": "address"
        },
        {
          "internalType": "address",
          "name": "_user",
          "type": "address"
        },
        {
          "internalType": "uint256",
          "name": "_posId",
          "type": "uint256"
        }
      ],
      "name": "getBorrowValueE36",
      "outputs": [
        {
          "internalType": "uint256",
          "name": "borrowValueE36",
          "type": "uint256"
        }
      ],
      "stateMutability": "view",
      "type": "function"
    },
    {
      "inputs": [
        {
          "internalType": "address",
          "name": "_positionManager",
          "type": "address"
        },
        {
          "internalType": "address",
          "name": "_user",
          "type": "address"
        },
        {
          "internalType": "uint256",
          "name": "_posId",
          "type": "uint256"
        }
      ],
      "name": "getCollateralValueE36",
      "outputs": [
        {
          "internalType": "uint256",
          "name": "collateralValueE36",
          "type": "uint256"
        }
      ],
      "stateMutability": "view",
      "type": "function"
    },
    {
      "inputs": [
        {
          "internalType": "address",
          "name": "_positionManager",
          "type": "address"
        },
        {
          "internalType": "address",
          "name": "_user",
          "type": "address"
        },
        {
          "internalType": "uint256",
          "name": "_posId",
          "type": "uint256"
        }
      ],
      "name": "getDecodedExtraPosInfo",
      "outputs": [
        {
          "components": [
            {
              "internalType": "uint256[]",
              "name": "binIds",
              "type": "uint256[]"
            },
            {
              "internalType": "uint256[]",
              "name": "liquidities",
              "type": "uint256[]"
            }
          ],
          "internalType": "struct JoeV2_1ExtraPosInfo",
          "name": "",
          "type": "tuple"
        }
      ],
      "stateMutability": "view",
      "type": "function"
    },
    {
      "inputs": [
        {
          "components": [
            {
              "internalType": "uint128",
              "name": "inputAmt",
              "type": "uint128"
            },
            {
              "internalType": "uint128",
              "name": "borrowAmt",
              "type": "uint128"
            }
          ],
          "internalType": "struct OpenTokenInfo[]",
          "name": "_openTokenInfos",
          "type": "tuple[]"
        }
      ],
      "name": "getInputsAndBorrows",
      "outputs": [
        {
          "internalType": "uint128[]",
          "name": "inputs",
          "type": "uint128[]"
        },
        {
          "internalType": "uint128[]",
          "name": "borrows",
          "type": "uint128[]"
        }
      ],
      "stateMutability": "pure",
      "type": "function"
    },
    {
      "inputs": [
        {
          "internalType": "address",
          "name": "_positionManager",
          "type": "address"
        },
        {
          "internalType": "address",
          "name": "_user",
          "type": "address"
        },
        {
          "internalType": "uint256",
          "name": "_posId",
          "type": "uint256"
        }
      ],
      "name": "getPnL",
      "outputs": [
        {
          "internalType": "address[]",
          "name": "tokens",
          "type": "address[]"
        },
        {
          "internalType": "int256[]",
          "name": "netTokens",
          "type": "int256[]"
        },
        {
          "internalType": "int256",
          "name": "netPnL",
          "type": "int256"
        }
      ],
      "stateMutability": "view",
      "type": "function"
    },
    {
      "inputs": [
        {
          "internalType": "address",
          "name": "_positionManager",
          "type": "address"
        },
        {
          "internalType": "address",
          "name": "_user",
          "type": "address"
        },
        {
          "internalType": "uint256",
          "name": "_posId",
          "type": "uint256"
        }
      ],
      "name": "getPositionDebtRatioE18",
      "outputs": [
        {
          "internalType": "uint256",
          "name": "debtRatioE18",
          "type": "uint256"
        }
      ],
      "stateMutability": "view",
      "type": "function"
    },
    {
      "inputs": [
        {
          "internalType": "address",
          "name": "_positionManager",
          "type": "address"
        },
        {
          "internalType": "address",
          "name": "_user",
          "type": "address"
        },
        {
          "internalType": "uint256",
          "name": "_posId",
          "type": "uint256"
        }
      ],
      "name": "getPositionDebts",
      "outputs": [
        {
          "internalType": "address[]",
          "name": "tokens",
          "type": "address[]"
        },
        {
          "internalType": "uint128[]",
          "name": "debts",
          "type": "uint128[]"
        }
      ],
      "stateMutability": "view",
      "type": "function"
    },
    {
      "inputs": [
        {
          "internalType": "address",
          "name": "_positionManager",
          "type": "address"
        },
        {
          "internalType": "address",
          "name": "_user",
          "type": "address"
        },
        {
          "internalType": "uint256",
          "name": "_posId",
          "type": "uint256"
        }
      ],
      "name": "getPositionInfo",
      "outputs": [
        {
          "components": [
            {
              "internalType": "uint128",
              "name": "collAmt",
              "type": "uint128"
            },
            {
              "internalType": "uint32",
              "name": "startTimestamp",
              "type": "uint32"
            },
            {
              "internalType": "uint32",
              "name": "positionDeadline",
              "type": "uint32"
            },
            {
              "internalType": "uint32",
              "name": "startLiqTimestamp",
              "type": "uint32"
            },
            {
              "internalType": "enum PositionStatus",
              "name": "status",
              "type": "uint8"
            },
            {
              "components": [
                {
                  "internalType": "uint128",
                  "name": "inputAmt",
                  "type": "uint128"
                },
                {
                  "internalType": "uint128",
                  "name": "borrowAmt",
                  "type": "uint128"
                }
              ],
              "internalType": "struct OpenTokenInfo[]",
              "name": "openTokenInfos",
              "type": "tuple[]"
            },
            {
              "internalType": "uint128[]",
              "name": "extraCollAmts",
              "type": "uint128[]"
            },
            {
              "internalType": "bytes",
              "name": "extraPosInfo",
              "type": "bytes"
            },
            {
              "internalType": "uint256",
              "name": "borrowId",
              "type": "uint256"
            }
          ],
          "internalType": "struct HyperPosition",
          "name": "",
          "type": "tuple"
        }
      ],
      "stateMutability": "view",
      "type": "function"
    },
    {
      "inputs": [
        {
          "internalType": "address",
          "name": "_positionManager",
          "type": "address"
        },
        {
          "internalType": "address",
          "name": "_user",
          "type": "address"
        },
        {
          "internalType": "uint256",
          "name": "_posId",
          "type": "uint256"
        }
      ],
      "name": "getPositionSpotUnderlyingTokenAmts",
      "outputs": [
        {
          "internalType": "uint256[]",
          "name": "positionUnderlyingTokenAmts",
          "type": "uint256[]"
        }
      ],
      "stateMutability": "view",
      "type": "function"
    },
    {
      "inputs": [
        {
          "internalType": "address",
          "name": "_positionManager",
          "type": "address"
        },
        {
          "internalType": "address",
          "name": "_user",
          "type": "address"
        },
        {
          "internalType": "uint256",
          "name": "_posId",
          "type": "uint256"
        }
      ],
      "name": "getPositionUSDValueE36",
      "outputs": [
        {
          "internalType": "uint256",
          "name": "positionUSDValueE36",
          "type": "uint256"
        }
      ],
      "stateMutability": "view",
      "type": "function"
    },
    {
      "inputs": [
        {
          "internalType": "address",
          "name": "_positionManager",
          "type": "address"
        },
        {
          "internalType": "address",
          "name": "_user",
          "type": "address"
        },
        {
          "internalType": "uint256",
          "name": "_posId",
          "type": "uint256"
        }
      ],
      "name": "getProfitSharing",
      "outputs": [
        {
          "internalType": "address[]",
          "name": "tokens",
          "type": "address[]"
        },
        {
          "internalType": "uint256[]",
          "name": "sharingProfits",
          "type": "uint256[]"
        }
      ],
      "stateMutability": "view",
      "type": "function"
    },
    {
      "inputs": [],
      "name": "oracle",
      "outputs": [
        {
          "internalType": "address",
          "name": "",
          "type": "address"
        }
      ],
      "stateMutability": "view",
      "type": "function"
    }
  ],
  "bytecode": "60a060405234801561001057600080fd5b506040516200251b3803806200251b83398101604081905261003191610042565b6001600160a01b0316608052610072565b60006020828403121561005457600080fd5b81516001600160a01b038116811461006b57600080fd5b9392505050565b60805161247f6200009c6000396000818161020701528181610ef00152611084015261247f6000f3fe608060405234801561001057600080fd5b50600436106100ea5760003560e01c806359a98e601161008c578063aacb4c2511610066578063aacb4c2514610241578063d442872a14610254578063d8efed9014610274578063dbd3e0e91461028757600080fd5b806359a98e60146101c05780636931be64146101e15780637dc0d1d01461020257600080fd5b80632f89d4b8116100c85780632f89d4b81461015a57806332f06e9d1461016d5780634603b2df1461018057806354a0e3d0146101a057600080fd5b8063026f2701146100ef5780630806e652146101195780631838078114610139575b600080fd5b6101026100fd366004611783565b6102a9565b604051610110929190611841565b60405180910390f35b61012c610127366004611783565b6103c5565b60405161011091906118c4565b61014c6101473660046118d7565b61046a565b604051908152602001610110565b61014c610168366004611783565b6105c5565b61014c61017b366004611783565b61068e565b61019361018e366004611783565b61070b565b604051610110919061192a565b6101b36101ae366004611783565b6109bc565b6040516101109190611adc565b6101d36101ce366004611ccb565b610aeb565b604051610110929190611d8d565b6101f46101ef366004611783565b610c2a565b604051610110929190611da0565b6102297f000000000000000000000000000000000000000000000000000000000000000081565b6040516001600160a01b039091168152602001610110565b61014c61024f366004611783565b610d81565b610267610262366004611783565b610fef565b6040516101109190611dc5565b61014c610282366004611783565b61106c565b61029a610295366004611783565b6111a8565b60405161011093929190611dd8565b60608060006102b9868686610fef565b90506000816080015160028111156102d3576102d361193d565b14806102f457506002816080015160028111156102f2576102f261193d565b145b156103415760005b604051908082528060200260200182016040528015610325578160200160208202803683370190505b5060408051600081526020810190915290935091506103bd9050565b604051638def3aa560e01b81526001600160a01b03868116600483015260248201869052871690638def3aa590604401600060405180830381865afa15801561038e573d6000803e3d6000fd5b505050506040513d6000823e601f3d908101601f191682016040526103b69190810190611eec565b9093509150505b935093915050565b604080518082018252606080825260208201529051631327d7fb60e01b81526001600160a01b0384811660048301526024820184905260009190861690631327d7fb90604401600060405180830381865afa158015610428573d6000803e3d6000fd5b505050506040513d6000823e601f3d908101601f191682016040526104509190810190612066565b905061045f8160e001516113ec565b9150505b9392505050565b600080856001600160a01b03166379502c556040518163ffffffff1660e01b8152600401602060405180830381865afa1580156104ab573d6000803e3d6000fd5b505050506040513d601f19601f820116820180604052508101906104cf919061217d565b90506000816001600160a01b03166307aee4966040518163ffffffff1660e01b8152600401602060405180830381865afa158015610511573d6000803e3d6000fd5b505050506040513d601f19601f82011682018060405250810190610535919061217d565b604051633bcf33d360e21b81526001600160a01b03868116600483015289811660248301528881166044830152606482018890529192509082169063ef3ccf4c90608401602060405180830381865afa158015610596573d6000803e3d6000fd5b505050506040513d601f19601f820116820180604052508101906105ba919061219a565b979650505050505050565b6000806105d3858585610fef565b90506000816080015160028111156105ed576105ed61193d565b148061060e575060028160800151600281111561060c5761060c61193d565b145b1561061d576000915050610463565b6040516369eeaf6b60e11b81526001600160a01b0385811660048301526024820185905286169063d3dd5ed690604401602060405180830381865afa15801561066a573d6000803e3d6000fd5b505050506040513d601f19601f8201168201806040525081019061045f919061219a565b6040516301bb88f760e11b81526001600160a01b038381166004830152602482018390526000919085169063037711ee90604401602060405180830381865afa1580156106df573d6000803e3d6000fd5b505050506040513d601f19601f82011682018060405250810190610703919061219a565b949350505050565b6060600061071a8585856103c5565b90506000856001600160a01b03166331b8c9466040518163ffffffff1660e01b8152600401602060405180830381865afa15801561075c573d6000803e3d6000fd5b505050506040513d601f19601f82011682018060405250810190610780919061217d565b604080516002808252606082018352929350919060208301908036833701905050925060005b8251518110156109b257600080836001600160a01b0316630abe96886107e8876000015186815181106107db576107db6121b3565b602002602001015161141a565b6040516001600160e01b031960e084901b16815262ffffff90911660048201526024016040805180830381865afa158015610827573d6000803e3d6000fd5b505050506040513d601f19601f8201168201806040525081019061084b91906121c9565b90925090506000608082901b6001600160801b0384161790506000856001600160a01b031663bd85b0398860000151878151811061088b5761088b6121b3565b60200260200101516040518263ffffffff1660e01b81526004016108b191815260200190565b602060405180830381865afa1580156108ce573d6000803e3d6000fd5b505050506040513d601f19601f820116820180604052508101906108f2919061219a565b905060006109288860200151878151811061090f5761090f6121b3565b602002602001015183856114879092919063ffffffff16565b89519091506001600160801b03821690608083901c9082908c90600090610951576109516121b3565b602002602001018181516109659190612219565b9052508a516001600160801b038216908c906001908110610988576109886121b3565b6020026020010181815161099c9190612219565b90525050600190960195506107a6945050505050565b5050509392505050565b6109c4611696565b6109cf84848461068e565b81526109dc8484846105c5565b60208201526109ec848484610d81565b60408201526109fc84848461106c565b6060820152610a0c8484846111a8565b608084015260c083015260a08201526040805163d95bd6c960e01b815290516001600160a01b0386169163d95bd6c99160048083019260009291908290030181865afa158015610a60573d6000803e3d6000fd5b505050506040513d6000823e601f3d908101601f19168201604052610a88919081019061222c565b60e0820152610a988484846102a9565b61010083015250610aaa848484610c2a565b61012083015250610abc848484610fef565b610140820152610acd8484846103c5565b610160820152610ade84848461070b565b6101808201529392505050565b60608082516001600160401b03811115610b0757610b07611c02565b604051908082528060200260200182016040528015610b30578160200160208202803683370190505b50915082516001600160401b03811115610b4c57610b4c611c02565b604051908082528060200260200182016040528015610b75578160200160208202803683370190505b50905060005b8351811015610c2457838181518110610b9657610b966121b3565b602002602001015160000151838281518110610bb457610bb46121b3565b60200260200101906001600160801b031690816001600160801b031681525050838181518110610be657610be66121b3565b602002602001015160200151828281518110610c0457610c046121b3565b6001600160801b0390921660209283029190910190910152600101610b7b565b50915091565b606080846001600160a01b031663d95bd6c96040518163ffffffff1660e01b8152600401600060405180830381865afa158015610c6b573d6000803e3d6000fd5b505050506040513d6000823e601f3d908101601f19168201604052610c93919081019061222c565b91506000610ca2868686610fef565b9050600081608001516002811115610cbc57610cbc61193d565b1480610cdd5750600281608001516002811115610cdb57610cdb61193d565b145b80610cf15750806020015163ffffffff1642145b15610cfd5760006102fc565b60405163096a37f960e01b81526001600160a01b0386811660048301526024820186905287169063096a37f990604401600060405180830381865afa158015610d4a573d6000803e3d6000fd5b505050506040513d6000823e601f3d908101601f19168201604052610d7291908101906122bb565b95505050505050935093915050565b604051631327d7fb60e01b81526001600160a01b038381166004830152602482018390526000918291861690631327d7fb90604401600060405180830381865afa158015610dd3573d6000803e3d6000fd5b505050506040513d6000823e601f3d908101601f19168201604052610dfb9190810190612066565b6040516369eeaf6b60e11b81526001600160a01b038681166004830152602482018690529192509086169063d3dd5ed690604401602060405180830381865afa158015610e4c573d6000803e3d6000fd5b505050506040513d601f19601f82011682018060405250810190610e70919061219a565b91506000856001600160a01b031663d95bd6c96040518163ffffffff1660e01b8152600401600060405180830381865afa158015610eb2573d6000803e3d6000fd5b505050506040513d6000823e601f3d908101601f19168201604052610eda919081019061222c565b60c083015190915060005b8151811015610fe4577f00000000000000000000000000000000000000000000000000000000000000006001600160a01b0316635c2b3991848381518110610f2f57610f2f6121b3565b60200260200101516040518263ffffffff1660e01b8152600401610f6291906001600160a01b0391909116815260200190565b602060405180830381865afa158015610f7f573d6000803e3d6000fd5b505050506040513d601f19601f82011682018060405250810190610fa3919061219a565b828281518110610fb557610fb56121b3565b60200260200101516001600160801b0316610fd0919061231e565b610fda9086612219565b9450600101610ee5565b505050509392505050565b610ff761171f565b604051631327d7fb60e01b81526001600160a01b03848116600483015260248201849052851690631327d7fb90604401600060405180830381865afa158015611044573d6000803e3d6000fd5b505050506040513d6000823e601f3d908101601f191682016040526107039190810190612066565b600080600061107c8686866102a9565b9150915060007f00000000000000000000000000000000000000000000000000000000000000006001600160a01b0316635675ecbe846040518263ffffffff1660e01b81526004016110ce9190612335565b600060405180830381865afa1580156110eb573d6000803e3d6000fd5b505050506040513d6000823e601f3d908101601f191682016040526111139190810190612348565b905060005b8351811015610fe4576000838281518110611135576111356121b3565b60200260200101516001600160801b031611156111a05781818151811061115e5761115e6121b3565b6020026020010151838281518110611178576111786121b3565b60200260200101516001600160801b0316611193919061231e565b61119d9086612219565b94505b600101611118565b6060806000806111b9878787610fef565b90506000816080015160028111156111d3576111d361193d565b14806111f457506002816080015160028111156111f2576111f261193d565b145b806112085750806020015163ffffffff1642145b15611230575050604080516000808252602082018181528284019093529093509091506113e3565b866001600160a01b031663d95bd6c96040518163ffffffff1660e01b8152600401600060405180830381865afa15801561126e573d6000803e3d6000fd5b505050506040513d6000823e601f3d908101601f19168201604052611296919081019061222c565b935060006112a588888861070b565b604080516002808252606082018352929350919060208301908036833701905050935060006112d78360a00151610aeb565b50905060005b8551811015611362576113118282815181106112fb576112fb6121b3565b60200260200101516001600160801b0316611504565b611333848381518110611326576113266121b3565b6020026020010151611504565b61133d919061237c565b86828151811061134f5761134f6121b3565b60209081029190910101526001016112dd565b5060405163096a37f960e01b81526001600160a01b038981166004830152602482018990528a169063096a37f990604401600060405180830381865afa1580156113b0573d6000803e3d6000fd5b505050506040513d6000823e601f3d908101601f191682016040526113d891908101906122bb565b509296505050505050505b93509350939050565b60408051808201909152606080825260208201528180602001905181019061141491906123a3565b92915050565b600062ffffff8211156114835760405162461bcd60e51b815260206004820152602660248201527f53616665436173743a2076616c756520646f65736e27742066697420696e203260448201526534206269747360d01b60648201526084015b60405180910390fd5b5090565b60006001600160801b038416608085901c828083156114bf576114bc6114b7886001600160801b0387168961156e565b611598565b91505b6001600160801b038316156114e8576114e56114b7886001600160801b0386168961156e565b90505b608081901b6001600160801b0383161798975050505050505050565b60006001600160ff1b038211156114835760405162461bcd60e51b815260206004820152602860248201527f53616665436173743a2076616c756520646f65736e27742066697420696e2061604482015267371034b73a191a9b60c11b606482015260840161147a565b600080600061157d86866115c7565b9150915061158e86868685856115e6565b9695505050505050565b806001600160801b03811681146115c257604051632f45db3d60e21b815260040160405180910390fd5b919050565b6000806000198385098385029250828110838203039150509250929050565b600081600003611607578383816115ff576115ff612433565b04905061168d565b838210611627576040516313eae71560e01b815260040160405180910390fd5b60008486880960018619810187169687900496600081900381900490910186831190950394850291909503949094049390931792505060026003840281188085028203028085028203028085028203028085028203028085028203028085029091030282025b95945050505050565b604051806101a00160405280600081526020016000815260200160008152602001600081526020016000815260200160608152602001606081526020016060815260200160608152602001606081526020016116f061171f565b8152602001611712604051806040016040528060608152602001606081525090565b8152602001606081525090565b6040805161012081018252600080825260208201819052918101829052606081018290529060808201908152602001606081526020016060815260200160608152602001600081525090565b6001600160a01b038116811461178057600080fd5b50565b60008060006060848603121561179857600080fd5b83356117a38161176b565b925060208401356117b38161176b565b929592945050506040919091013590565b600081518084526020808501945080840160005b838110156117fd5781516001600160a01b0316875295820195908201906001016117d8565b509495945050505050565b600081518084526020808501945080840160005b838110156117fd5781516001600160801b03168752958201959082019060010161181c565b60408152600061185460408301856117c4565b828103602084015261045f8185611808565b600081518084526020808501945080840160005b838110156117fd5781518752958201959082019060010161187a565b60008151604084526118ab6040850182611866565b90506020830151848203602086015261168d8282611866565b6020815260006104636020830184611896565b600080600080608085870312156118ed57600080fd5b84356118f88161176b565b935060208501356119088161176b565b925060408501359150606085013561191f8161176b565b939692955090935050565b6020815260006104636020830184611866565b634e487b7160e01b600052602160045260246000fd5b6003811061197157634e487b7160e01b600052602160045260246000fd5b9052565b600081518084526020808501945080840160005b838110156117fd57815180516001600160801b03908116895290840151168388015260409096019590820190600101611989565b60005b838110156119d85781810151838201526020016119c0565b50506000910152565b600081518084526119f98160208601602086016119bd565b601f01601f19169290920160200192915050565b80516001600160801b0316825260006101206020830151611a36602086018263ffffffff169052565b506040830151611a4e604086018263ffffffff169052565b506060830151611a66606086018263ffffffff169052565b506080830151611a796080860182611953565b5060a08301518160a0860152611a9182860182611975565b91505060c083015184820360c0860152611aab8282611808565b91505060e083015184820360e0860152611ac582826119e1565b610100948501519590940194909452509092915050565b6020815281516020820152602082015160408201526040820151606082015260608201516080820152608082015160a0820152600060a08301516101a08060c0850152611b2d6101c08501836117c4565b915060c0850151601f19808685030160e0870152611b4b8483611866565b935060e08701519150610100818786030181880152611b6a85846117c4565b945080880151925050610120818786030181880152611b898584611808565b945080880151925050610140818786030181880152611ba88584611866565b945080880151925050610160818786030181880152611bc78584611a0d565b945080880151925050610180818786030181880152611be68584611896565b90880151878203909201848801529350905061158e8382611866565b634e487b7160e01b600052604160045260246000fd5b604080519081016001600160401b0381118282101715611c3a57611c3a611c02565b60405290565b60405161012081016001600160401b0381118282101715611c3a57611c3a611c02565b604051601f8201601f191681016001600160401b0381118282101715611c8b57611c8b611c02565b604052919050565b60006001600160401b03821115611cac57611cac611c02565b5060051b60200190565b6001600160801b038116811461178057600080fd5b60006020808385031215611cde57600080fd5b82356001600160401b03811115611cf457600080fd5b8301601f81018513611d0557600080fd5b8035611d18611d1382611c93565b611c63565b81815260069190911b82018301908381019087831115611d3757600080fd5b928401925b828410156105ba5760408489031215611d555760008081fd5b611d5d611c18565b8435611d6881611cb6565b815284860135611d7781611cb6565b8187015282526040939093019290840190611d3c565b6040815260006118546040830185611808565b604081526000611db360408301856117c4565b828103602084015261045f8185611866565b6020815260006104636020830184611a0d565b606081526000611deb60608301866117c4565b8281036020840152611dfd8186611866565b915050826040830152949350505050565b600082601f830112611e1f57600080fd5b81516020611e2f611d1383611c93565b82815260059290921b84018101918181019086841115611e4e57600080fd5b8286015b84811015611e72578051611e658161176b565b8352918301918301611e52565b509695505050505050565b80516115c281611cb6565b600082601f830112611e9957600080fd5b81516020611ea9611d1383611c93565b82815260059290921b84018101918181019086841115611ec857600080fd5b8286015b84811015611e72578051611edf81611cb6565b8352918301918301611ecc565b60008060408385031215611eff57600080fd5b82516001600160401b0380821115611f1657600080fd5b611f2286838701611e0e565b93506020850151915080821115611f3857600080fd5b50611f4585828601611e88565b9150509250929050565b805163ffffffff811681146115c257600080fd5b8051600381106115c257600080fd5b600082601f830112611f8357600080fd5b81516020611f93611d1383611c93565b82815260069290921b84018101918181019086841115611fb257600080fd5b8286015b84811015611e725760408189031215611fcf5760008081fd5b611fd7611c18565b8151611fe281611cb6565b815281850151611ff181611cb6565b81860152835291830191604001611fb6565b600082601f83011261201457600080fd5b81516001600160401b0381111561202d5761202d611c02565b612040601f8201601f1916602001611c63565b81815284602083860101111561205557600080fd5b6107038260208301602087016119bd565b60006020828403121561207857600080fd5b81516001600160401b038082111561208f57600080fd5b9083019061012082860312156120a457600080fd5b6120ac611c40565b6120b583611e7d565b81526120c360208401611f4f565b60208201526120d460408401611f4f565b60408201526120e560608401611f4f565b60608201526120f660808401611f63565b608082015260a08301518281111561210d57600080fd5b61211987828601611f72565b60a08301525060c08301518281111561213157600080fd5b61213d87828601611e88565b60c08301525060e08301518281111561215557600080fd5b61216187828601612003565b60e0830152506101009283015192810192909252509392505050565b60006020828403121561218f57600080fd5b81516104638161176b565b6000602082840312156121ac57600080fd5b5051919050565b634e487b7160e01b600052603260045260246000fd5b600080604083850312156121dc57600080fd5b82516121e781611cb6565b60208401519092506121f881611cb6565b809150509250929050565b634e487b7160e01b600052601160045260246000fd5b8082018082111561141457611414612203565b60006020828403121561223e57600080fd5b81516001600160401b0381111561225457600080fd5b61070384828501611e0e565b600082601f83011261227157600080fd5b81516020612281611d1383611c93565b82815260059290921b840181019181810190868411156122a057600080fd5b8286015b84811015611e7257805183529183019183016122a4565b600080600080600060a086880312156122d357600080fd5b8551945060208601519350604086015192506060860151915060808601516001600160401b0381111561230557600080fd5b61231188828901612260565b9150509295509295909350565b808202811582820484141761141457611414612203565b60208152600061046360208301846117c4565b60006020828403121561235a57600080fd5b81516001600160401b0381111561237057600080fd5b61070384828501612260565b818103600083128015838313168383128216171561239c5761239c612203565b5092915050565b6000602082840312156123b557600080fd5b81516001600160401b03808211156123cc57600080fd5b90830190604082860312156123e057600080fd5b6123e8611c18565b8251828111156123f757600080fd5b61240387828601612260565b82525060208301518281111561241857600080fd5b61242487828601612260565b60208301525095945050505050565b634e487b7160e01b600052601260045260246000fdfea26469706673582212207a978c72d1b39afbef7491fedb6722d4cd0088d9466580f86bcb3db386482caf64736f6c63430008130033",
  "bytecodeSha1": "6a992f18494b2015e0ef8fe356a8a26af0f21d65",
  "compiler": {
    "evm_version": "istanbul",
    "optimizer": {
      "enabled": true,
      "runs": 200
    },
    "version": "0.8.19+commit.7dd6d404"
  },
  "contractName": "HyperStellaJoeV2_1Reader",
  "language": "Solidity",
  "natspec": {
    "kind": "dev",
    "methods": {},
    "version": 1
  },
  "opcodes": "PUSH1 0x80 PUSH1 0x40 MSTORE CALLVALUE DUP1 ISZERO PUSH2 0x10 JUMPI PUSH1 0x0 DUP1 REVERT JUMPDEST POP PUSH1 0x4 CALLDATASIZE LT PUSH2 0xEA JUMPI PUSH1 0x0 CALLDATALOAD PUSH1 0xE0 SHR DUP1 PUSH4 0x59A98E60 GT PUSH2 0x8C JUMPI DUP1 PUSH4 0xAACB4C25 GT PUSH2 0x66 JUMPI DUP1 PUSH4 0xAACB4C25 EQ PUSH2 0x241 JUMPI DUP1 PUSH4 0xD442872A EQ PUSH2 0x254 JUMPI DUP1 PUSH4 0xD8EFED90 EQ PUSH2 0x274 JUMPI DUP1 PUSH4 0xDBD3E0E9 EQ PUSH2 0x287 JUMPI PUSH1 0x0 DUP1 REVERT JUMPDEST DUP1 PUSH4 0x59A98E60 EQ PUSH2 0x1C0 JUMPI DUP1 PUSH4 0x6931BE64 EQ PUSH2 0x1E1 JUMPI DUP1 PUSH4 0x7DC0D1D0 EQ PUSH2 0x202 JUMPI PUSH1 0x0 DUP1 REVERT JUMPDEST DUP1 PUSH4 0x2F89D4B8 GT PUSH2 0xC8 JUMPI DUP1 PUSH4 0x2F89D4B8 EQ PUSH2 0x15A JUMPI DUP1 PUSH4 0x32F06E9D EQ PUSH2 0x16D JUMPI DUP1 PUSH4 0x4603B2DF EQ PUSH2 0x180 JUMPI DUP1 PUSH4 0x54A0E3D0 EQ PUSH2 0x1A0 JUMPI PUSH1 0x0 DUP1 REVERT JUMPDEST DUP1 PUSH4 0x26F2701 EQ PUSH2 0xEF JUMPI DUP1 PUSH4 0x806E652 EQ PUSH2 0x119 JUMPI DUP1 PUSH4 0x18380781 EQ PUSH2 0x139 JUMPI JUMPDEST PUSH1 0x0 DUP1 REVERT JUMPDEST PUSH2 0x102 PUSH2 0xFD CALLDATASIZE PUSH1 0x4 PUSH2 0x1783 JUMP JUMPDEST PUSH2 0x2A9 JUMP JUMPDEST PUSH1 0x40 MLOAD PUSH2 0x110 SWAP3 SWAP2 SWAP1 PUSH2 0x1841 JUMP JUMPDEST PUSH1 0x40 MLOAD DUP1 SWAP2 SUB SWAP1 RETURN JUMPDEST PUSH2 0x12C PUSH2 0x127 CALLDATASIZE PUSH1 0x4 PUSH2 0x1783 JUMP JUMPDEST PUSH2 0x3C5 JUMP JUMPDEST PUSH1 0x40 MLOAD PUSH2 0x110 SWAP2 SWAP1 PUSH2 0x18C4 JUMP JUMPDEST PUSH2 0x14C PUSH2 0x147 CALLDATASIZE PUSH1 0x4 PUSH2 0x18D7 JUMP JUMPDEST PUSH2 0x46A JUMP JUMPDEST PUSH1 0x40 MLOAD SWAP1 DUP2 MSTORE PUSH1 0x20 ADD PUSH2 0x110 JUMP JUMPDEST PUSH2 0x14C PUSH2 0x168 CALLDATASIZE PUSH1 0x4 PUSH2 0x1783 JUMP JUMPDEST PUSH2 0x5C5 JUMP JUMPDEST PUSH2 0x14C PUSH2 0x17B CALLDATASIZE PUSH1 0x4 PUSH2 0x1783 JUMP JUMPDEST PUSH2 0x68E JUMP JUMPDEST PUSH2 0x193 PUSH2 0x18E CALLDATASIZE PUSH1 0x4 PUSH2 0x1783 JUMP JUMPDEST PUSH2 0x70B JUMP JUMPDEST PUSH1 0x40 MLOAD PUSH2 0x110 SWAP2 SWAP1 PUSH2 0x192A JUMP JUMPDEST PUSH2 0x1B3 PUSH2 0x1AE CALLDATASIZE PUSH1 0x4 PUSH2 0x1783 JUMP JUMPDEST PUSH2 0x9BC JUMP JUMPDEST PUSH1 0x40 MLOAD PUSH2 0x110 SWAP2 SWAP1 PUSH2 0x1ADC JUMP JUMPDEST PUSH2 0x1D3 PUSH2 0x1CE CALLDATASIZE PUSH1 0x4 PUSH2 0x1CCB JUMP JUMPDEST PUSH2 0xAEB JUMP JUMPDEST PUSH1 0x40 MLOAD PUSH2 0x110 SWAP3 SWAP2 SWAP1 PUSH2 0x1D8D JUMP JUMPDEST PUSH2 0x1F4 PUSH2 0x1EF CALLDATASIZE PUSH1 0x4 PUSH2 0x1783 JUMP JUMPDEST PUSH2 0xC2A JUMP JUMPDEST PUSH1 0x40 MLOAD PUSH2 0x110 SWAP3 SWAP2 SWAP1 PUSH2 0x1DA0 JUMP JUMPDEST PUSH2 0x229 PUSH32 0x0 DUP2 JUMP JUMPDEST PUSH1 0x40 MLOAD PUSH1 0x1 PUSH1 0x1 PUSH1 0xA0 SHL SUB SWAP1 SWAP2 AND DUP2 MSTORE PUSH1 0x20 ADD PUSH2 0x110 JUMP JUMPDEST PUSH2 0x14C PUSH2 0x24F CALLDATASIZE PUSH1 0x4 PUSH2 0x1783 JUMP JUMPDEST PUSH2 0xD81 JUMP JUMPDEST PUSH2 0x267 PUSH2 0x262 CALLDATASIZE PUSH1 0x4 PUSH2 0x1783 JUMP JUMPDEST PUSH2 0xFEF JUMP JUMPDEST PUSH1 0x40 MLOAD PUSH2 0x110 SWAP2 SWAP1 PUSH2 0x1DC5 JUMP JUMPDEST PUSH2 0x14C PUSH2 0x282 CALLDATASIZE PUSH1 0x4 PUSH2 0x1783 JUMP JUMPDEST PUSH2 0x106C JUMP JUMPDEST PUSH2 0x29A PUSH2 0x295 CALLDATASIZE PUSH1 0x4 PUSH2 0x1783 JUMP JUMPDEST PUSH2 0x11A8 JUMP JUMPDEST PUSH1 0x40 MLOAD PUSH2 0x110 SWAP4 SWAP3 SWAP2 SWAP1 PUSH2 0x1DD8 JUMP JUMPDEST PUSH1 0x60 DUP1 PUSH1 0x0 PUSH2 0x2B9 DUP7 DUP7 DUP7 PUSH2 0xFEF JUMP JUMPDEST SWAP1 POP PUSH1 0x0 DUP2 PUSH1 0x80 ADD MLOAD PUSH1 0x2 DUP2 GT ISZERO PUSH2 0x2D3 JUMPI PUSH2 0x2D3 PUSH2 0x193D JUMP JUMPDEST EQ DUP1 PUSH2 0x2F4 JUMPI POP PUSH1 0x2 DUP2 PUSH1 0x80 ADD MLOAD PUSH1 0x2 DUP2 GT ISZERO PUSH2 0x2F2 JUMPI PUSH2 0x2F2 PUSH2 0x193D JUMP JUMPDEST EQ JUMPDEST ISZERO PUSH2 0x341 JUMPI PUSH1 0x0 JUMPDEST PUSH1 0x40 MLOAD SWAP1 DUP1 DUP3 MSTORE DUP1 PUSH1 0x20 MUL PUSH1 0x20 ADD DUP3 ADD PUSH1 0x40 MSTORE DUP1 ISZERO PUSH2 0x325 JUMPI DUP2 PUSH1 0x20 ADD PUSH1 0x20 DUP3 MUL DUP1 CALLDATASIZE DUP4 CALLDATACOPY ADD SWAP1 POP JUMPDEST POP PUSH1 0x40 DUP1 MLOAD PUSH1 0x0 DUP2 MSTORE PUSH1 0x20 DUP2 ADD SWAP1 SWAP2 MSTORE SWAP1 SWAP4 POP SWAP2 POP PUSH2 0x3BD SWAP1 POP JUMP JUMPDEST PUSH1 0x40 MLOAD PUSH4 0x8DEF3AA5 PUSH1 0xE0 SHL DUP2 MSTORE PUSH1 0x1 PUSH1 0x1 PUSH1 0xA0 SHL SUB DUP7 DUP2 AND PUSH1 0x4 DUP4 ADD MSTORE PUSH1 0x24 DUP3 ADD DUP7 SWAP1 MSTORE DUP8 AND SWAP1 PUSH4 0x8DEF3AA5 SWAP1 PUSH1 0x44 ADD PUSH1 0x0 PUSH1 0x40 MLOAD DUP1 DUP4 SUB DUP2 DUP7 GAS STATICCALL ISZERO DUP1 ISZERO PUSH2 0x38E JUMPI RETURNDATASIZE PUSH1 0x0 DUP1 RETURNDATACOPY RETURNDATASIZE PUSH1 0x0 REVERT JUMPDEST POP POP POP POP PUSH1 0x40 MLOAD RETURNDATASIZE PUSH1 0x0 DUP3 RETURNDATACOPY PUSH1 0x1F RETURNDATASIZE SWAP1 DUP2 ADD PUSH1 0x1F NOT AND DUP3 ADD PUSH1 0x40 MSTORE PUSH2 0x3B6 SWAP2 SWAP1 DUP2 ADD SWAP1 PUSH2 0x1EEC JUMP JUMPDEST SWAP1 SWAP4 POP SWAP2 POP POP JUMPDEST SWAP4 POP SWAP4 SWAP2 POP POP JUMP JUMPDEST PUSH1 0x40 DUP1 MLOAD DUP1 DUP3 ADD DUP3 MSTORE PUSH1 0x60 DUP1 DUP3 MSTORE PUSH1 0x20 DUP3 ADD MSTORE SWAP1 MLOAD PUSH4 0x1327D7FB PUSH1 0xE0 SHL DUP2 MSTORE PUSH1 0x1 PUSH1 0x1 PUSH1 0xA0 SHL SUB DUP5 DUP2 AND PUSH1 0x4 DUP4 ADD MSTORE PUSH1 0x24 DUP3 ADD DUP5 SWAP1 MSTORE PUSH1 0x0 SWAP2 SWAP1 DUP7 AND SWAP1 PUSH4 0x1327D7FB SWAP1 PUSH1 0x44 ADD PUSH1 0x0 PUSH1 0x40 MLOAD DUP1 DUP4 SUB DUP2 DUP7 GAS STATICCALL ISZERO DUP1 ISZERO PUSH2 0x428 JUMPI RETURNDATASIZE PUSH1 0x0 DUP1 RETURNDATACOPY RETURNDATASIZE PUSH1 0x0 REVERT JUMPDEST POP POP POP POP PUSH1 0x40 MLOAD RETURNDATASIZE PUSH1 0x0 DUP3 RETURNDATACOPY PUSH1 0x1F RETURNDATASIZE SWAP1 DUP2 ADD PUSH1 0x1F NOT AND DUP3 ADD PUSH1 0x40 MSTORE PUSH2 0x450 SWAP2 SWAP1 DUP2 ADD SWAP1 PUSH2 0x2066 JUMP JUMPDEST SWAP1 POP PUSH2 0x45F DUP2 PUSH1 0xE0 ADD MLOAD PUSH2 0x13EC JUMP JUMPDEST SWAP2 POP POP JUMPDEST SWAP4 SWAP3 POP POP POP JUMP JUMPDEST PUSH1 0x0 DUP1 DUP6 PUSH1 0x1 PUSH1 0x1 PUSH1 0xA0 SHL SUB AND PUSH4 0x79502C55 PUSH1 0x40 MLOAD DUP2 PUSH4 0xFFFFFFFF AND PUSH1 0xE0 SHL DUP2 MSTORE PUSH1 0x4 ADD PUSH1 0x20 PUSH1 0x40 MLOAD DUP1 DUP4 SUB DUP2 DUP7 GAS STATICCALL ISZERO DUP1 ISZERO PUSH2 0x4AB JUMPI RETURNDATASIZE PUSH1 0x0 DUP1 RETURNDATACOPY RETURNDATASIZE PUSH1 0x0 REVERT JUMPDEST POP POP POP POP PUSH1 0x40 MLOAD RETURNDATASIZE PUSH1 0x1F NOT PUSH1 0x1F DUP3 ADD AND DUP3 ADD DUP1 PUSH1 0x40 MSTORE POP DUP2 ADD SWAP1 PUSH2 0x4CF SWAP2 SWAP1 PUSH2 0x217D JUMP JUMPDEST SWAP1 POP PUSH1 0x0 DUP2 PUSH1 0x1 PUSH1 0x1 PUSH1 0xA0 SHL SUB AND PUSH4 0x7AEE496 PUSH1 0x40 MLOAD DUP2 PUSH4 0xFFFFFFFF AND PUSH1 0xE0 SHL DUP2 MSTORE PUSH1 0x4 ADD PUSH1 0x20 PUSH1 0x40 MLOAD DUP1 DUP4 SUB DUP2 DUP7 GAS STATICCALL ISZERO DUP1 ISZERO PUSH2 0x511 JUMPI RETURNDATASIZE PUSH1 0x0 DUP1 RETURNDATACOPY RETURNDATASIZE PUSH1 0x0 REVERT JUMPDEST POP POP POP POP PUSH1 0x40 MLOAD RETURNDATASIZE PUSH1 0x1F NOT PUSH1 0x1F DUP3 ADD AND DUP3 ADD DUP1 PUSH1 0x40 MSTORE POP DUP2 ADD SWAP1 PUSH2 0x535 SWAP2 SWAP1 PUSH2 0x217D JUMP JUMPDEST PUSH1 0x40 MLOAD PUSH4 0x3BCF33D3 PUSH1 0xE2 SHL DUP2 MSTORE PUSH1 0x1 PUSH1 0x1 PUSH1 0xA0 SHL SUB DUP7 DUP2 AND PUSH1 0x4 DUP4 ADD MSTORE DUP10 DUP2 AND PUSH1 0x24 DUP4 ADD MSTORE DUP9 DUP2 AND PUSH1 0x44 DUP4 ADD MSTORE PUSH1 0x64 DUP3 ADD DUP9 SWAP1 MSTORE SWAP2 SWAP3 POP SWAP1 DUP3 AND SWAP1 PUSH4 0xEF3CCF4C SWAP1 PUSH1 0x84 ADD PUSH1 0x20 PUSH1 0x40 MLOAD DUP1 DUP4 SUB DUP2 DUP7 GAS STATICCALL ISZERO DUP1 ISZERO PUSH2 0x596 JUMPI RETURNDATASIZE PUSH1 0x0 DUP1 RETURNDATACOPY RETURNDATASIZE PUSH1 0x0 REVERT JUMPDEST POP POP POP POP PUSH1 0x40 MLOAD RETURNDATASIZE PUSH1 0x1F NOT PUSH1 0x1F DUP3 ADD AND DUP3 ADD DUP1 PUSH1 0x40 MSTORE POP DUP2 ADD SWAP1 PUSH2 0x5BA SWAP2 SWAP1 PUSH2 0x219A JUMP JUMPDEST SWAP8 SWAP7 POP POP POP POP POP POP POP JUMP JUMPDEST PUSH1 0x0 DUP1 PUSH2 0x5D3 DUP6 DUP6 DUP6 PUSH2 0xFEF JUMP JUMPDEST SWAP1 POP PUSH1 0x0 DUP2 PUSH1 0x80 ADD MLOAD PUSH1 0x2 DUP2 GT ISZERO PUSH2 0x5ED JUMPI PUSH2 0x5ED PUSH2 0x193D JUMP JUMPDEST EQ DUP1 PUSH2 0x60E JUMPI POP PUSH1 0x2 DUP2 PUSH1 0x80 ADD MLOAD PUSH1 0x2 DUP2 GT ISZERO PUSH2 0x60C JUMPI PUSH2 0x60C PUSH2 0x193D JUMP JUMPDEST EQ JUMPDEST ISZERO PUSH2 0x61D JUMPI PUSH1 0x0 SWAP2 POP POP PUSH2 0x463 JUMP JUMPDEST PUSH1 0x40 MLOAD PUSH4 0x69EEAF6B PUSH1 0xE1 SHL DUP2 MSTORE PUSH1 0x1 PUSH1 0x1 PUSH1 0xA0 SHL SUB DUP6 DUP2 AND PUSH1 0x4 DUP4 ADD MSTORE PUSH1 0x24 DUP3 ADD DUP6 SWAP1 MSTORE DUP7 AND SWAP1 PUSH4 0xD3DD5ED6 SWAP1 PUSH1 0x44 ADD PUSH1 0x20 PUSH1 0x40 MLOAD DUP1 DUP4 SUB DUP2 DUP7 GAS STATICCALL ISZERO DUP1 ISZERO PUSH2 0x66A JUMPI RETURNDATASIZE PUSH1 0x0 DUP1 RETURNDATACOPY RETURNDATASIZE PUSH1 0x0 REVERT JUMPDEST POP POP POP POP PUSH1 0x40 MLOAD RETURNDATASIZE PUSH1 0x1F NOT PUSH1 0x1F DUP3 ADD AND DUP3 ADD DUP1 PUSH1 0x40 MSTORE POP DUP2 ADD SWAP1 PUSH2 0x45F SWAP2 SWAP1 PUSH2 0x219A JUMP JUMPDEST PUSH1 0x40 MLOAD PUSH4 0x1BB88F7 PUSH1 0xE1 SHL DUP2 MSTORE PUSH1 0x1 PUSH1 0x1 PUSH1 0xA0 SHL SUB DUP4 DUP2 AND PUSH1 0x4 DUP4 ADD MSTORE PUSH1 0x24 DUP3 ADD DUP4 SWAP1 MSTORE PUSH1 0x0 SWAP2 SWAP1 DUP6 AND SWAP1 PUSH4 0x37711EE SWAP1 PUSH1 0x44 ADD PUSH1 0x20 PUSH1 0x40 MLOAD DUP1 DUP4 SUB DUP2 DUP7 GAS STATICCALL ISZERO DUP1 ISZERO PUSH2 0x6DF JUMPI RETURNDATASIZE PUSH1 0x0 DUP1 RETURNDATACOPY RETURNDATASIZE PUSH1 0x0 REVERT JUMPDEST POP POP POP POP PUSH1 0x40 MLOAD RETURNDATASIZE PUSH1 0x1F NOT PUSH1 0x1F DUP3 ADD AND DUP3 ADD DUP1 PUSH1 0x40 MSTORE POP DUP2 ADD SWAP1 PUSH2 0x703 SWAP2 SWAP1 PUSH2 0x219A JUMP JUMPDEST SWAP5 SWAP4 POP POP POP POP JUMP JUMPDEST PUSH1 0x60 PUSH1 0x0 PUSH2 0x71A DUP6 DUP6 DUP6 PUSH2 0x3C5 JUMP JUMPDEST SWAP1 POP PUSH1 0x0 DUP6 PUSH1 0x1 PUSH1 0x1 PUSH1 0xA0 SHL SUB AND PUSH4 0x31B8C946 PUSH1 0x40 MLOAD DUP2 PUSH4 0xFFFFFFFF AND PUSH1 0xE0 SHL DUP2 MSTORE PUSH1 0x4 ADD PUSH1 0x20 PUSH1 0x40 MLOAD DUP1 DUP4 SUB DUP2 DUP7 GAS STATICCALL ISZERO DUP1 ISZERO PUSH2 0x75C JUMPI RETURNDATASIZE PUSH1 0x0 DUP1 RETURNDATACOPY RETURNDATASIZE PUSH1 0x0 REVERT JUMPDEST POP POP POP POP PUSH1 0x40 MLOAD RETURNDATASIZE PUSH1 0x1F NOT PUSH1 0x1F DUP3 ADD AND DUP3 ADD DUP1 PUSH1 0x40 MSTORE POP DUP2 ADD SWAP1 PUSH2 0x780 SWAP2 SWAP1 PUSH2 0x217D JUMP JUMPDEST PUSH1 0x40 DUP1 MLOAD PUSH1 0x2 DUP1 DUP3 MSTORE PUSH1 0x60 DUP3 ADD DUP4 MSTORE SWAP3 SWAP4 POP SWAP2 SWAP1 PUSH1 0x20 DUP4 ADD SWAP1 DUP1 CALLDATASIZE DUP4 CALLDATACOPY ADD SWAP1 POP POP SWAP3 POP PUSH1 0x0 JUMPDEST DUP3 MLOAD MLOAD DUP2 LT ISZERO PUSH2 0x9B2 JUMPI PUSH1 0x0 DUP1 DUP4 PUSH1 0x1 PUSH1 0x1 PUSH1 0xA0 SHL SUB AND PUSH4 0xABE9688 PUSH2 0x7E8 DUP8 PUSH1 0x0 ADD MLOAD DUP7 DUP2 MLOAD DUP2 LT PUSH2 0x7DB JUMPI PUSH2 0x7DB PUSH2 0x21B3 JUMP JUMPDEST PUSH1 0x20 MUL PUSH1 0x20 ADD ADD MLOAD PUSH2 0x141A JUMP JUMPDEST PUSH1 0x40 MLOAD PUSH1 0x1 PUSH1 0x1 PUSH1 0xE0 SHL SUB NOT PUSH1 0xE0 DUP5 SWAP1 SHL AND DUP2 MSTORE PUSH3 0xFFFFFF SWAP1 SWAP2 AND PUSH1 0x4 DUP3 ADD MSTORE PUSH1 0x24 ADD PUSH1 0x40 DUP1 MLOAD DUP1 DUP4 SUB DUP2 DUP7 GAS STATICCALL ISZERO DUP1 ISZERO PUSH2 0x827 JUMPI RETURNDATASIZE PUSH1 0x0 DUP1 RETURNDATACOPY RETURNDATASIZE PUSH1 0x0 REVERT JUMPDEST POP POP POP POP PUSH1 0x40 MLOAD RETURNDATASIZE PUSH1 0x1F NOT PUSH1 0x1F DUP3 ADD AND DUP3 ADD DUP1 PUSH1 0x40 MSTORE POP DUP2 ADD SWAP1 PUSH2 0x84B SWAP2 SWAP1 PUSH2 0x21C9 JUMP JUMPDEST SWAP1 SWAP3 POP SWAP1 POP PUSH1 0x0 PUSH1 0x80 DUP3 SWAP1 SHL PUSH1 0x1 PUSH1 0x1 PUSH1 0x80 SHL SUB DUP5 AND OR SWAP1 POP PUSH1 0x0 DUP6 PUSH1 0x1 PUSH1 0x1 PUSH1 0xA0 SHL SUB AND PUSH4 0xBD85B039 DUP9 PUSH1 0x0 ADD MLOAD DUP8 DUP2 MLOAD DUP2 LT PUSH2 0x88B JUMPI PUSH2 0x88B PUSH2 0x21B3 JUMP JUMPDEST PUSH1 0x20 MUL PUSH1 0x20 ADD ADD MLOAD PUSH1 0x40 MLOAD DUP3 PUSH4 0xFFFFFFFF AND PUSH1 0xE0 SHL DUP2 MSTORE PUSH1 0x4 ADD PUSH2 0x8B1 SWAP2 DUP2 MSTORE PUSH1 0x20 ADD SWAP1 JUMP JUMPDEST PUSH1 0x20 PUSH1 0x40 MLOAD DUP1 DUP4 SUB DUP2 DUP7 GAS STATICCALL ISZERO DUP1 ISZERO PUSH2 0x8CE JUMPI RETURNDATASIZE PUSH1 0x0 DUP1 RETURNDATACOPY RETURNDATASIZE PUSH1 0x0 REVERT JUMPDEST POP POP POP POP PUSH1 0x40 MLOAD RETURNDATASIZE PUSH1 0x1F NOT PUSH1 0x1F DUP3 ADD AND DUP3 ADD DUP1 PUSH1 0x40 MSTORE POP DUP2 ADD SWAP1 PUSH2 0x8F2 SWAP2 SWAP1 PUSH2 0x219A JUMP JUMPDEST SWAP1 POP PUSH1 0x0 PUSH2 0x928 DUP9 PUSH1 0x20 ADD MLOAD DUP8 DUP2 MLOAD DUP2 LT PUSH2 0x90F JUMPI PUSH2 0x90F PUSH2 0x21B3 JUMP JUMPDEST PUSH1 0x20 MUL PUSH1 0x20 ADD ADD MLOAD DUP4 DUP6 PUSH2 0x1487 SWAP1 SWAP3 SWAP2 SWAP1 PUSH4 0xFFFFFFFF AND JUMP JUMPDEST DUP10 MLOAD SWAP1 SWAP2 POP PUSH1 0x1 PUSH1 0x1 PUSH1 0x80 SHL SUB DUP3 AND SWAP1 PUSH1 0x80 DUP4 SWAP1 SHR SWAP1 DUP3 SWAP1 DUP13 SWAP1 PUSH1 0x0 SWAP1 PUSH2 0x951 JUMPI PUSH2 0x951 PUSH2 0x21B3 JUMP JUMPDEST PUSH1 0x20 MUL PUSH1 0x20 ADD ADD DUP2 DUP2 MLOAD PUSH2 0x965 SWAP2 SWAP1 PUSH2 0x2219 JUMP JUMPDEST SWAP1 MSTORE POP DUP11 MLOAD PUSH1 0x1 PUSH1 0x1 PUSH1 0x80 SHL SUB DUP3 AND SWAP1 DUP13 SWAP1 PUSH1 0x1 SWAP1 DUP2 LT PUSH2 0x988 JUMPI PUSH2 0x988 PUSH2 0x21B3 JUMP JUMPDEST PUSH1 0x20 MUL PUSH1 0x20 ADD ADD DUP2 DUP2 MLOAD PUSH2 0x99C SWAP2 SWAP1 PUSH2 0x2219 JUMP JUMPDEST SWAP1 MSTORE POP POP PUSH1 0x1 SWAP1 SWAP7 ADD SWAP6 POP PUSH2 0x7A6 SWAP5 POP POP POP POP POP JUMP JUMPDEST POP POP POP SWAP4 SWAP3 POP POP POP JUMP JUMPDEST PUSH2 0x9C4 PUSH2 0x1696 JUMP JUMPDEST PUSH2 0x9CF DUP5 DUP5 DUP5 PUSH2 0x68E JUMP JUMPDEST DUP2 MSTORE PUSH2 0x9DC DUP5 DUP5 DUP5 PUSH2 0x5C5 JUMP JUMPDEST PUSH1 0x20 DUP3 ADD MSTORE PUSH2 0x9EC DUP5 DUP5 DUP5 PUSH2 0xD81 JUMP JUMPDEST PUSH1 0x40 DUP3 ADD MSTORE PUSH2 0x9FC DUP5 DUP5 DUP5 PUSH2 0x106C JUMP JUMPDEST PUSH1 0x60 DUP3 ADD MSTORE PUSH2 0xA0C DUP5 DUP5 DUP5 PUSH2 0x11A8 JUMP JUMPDEST PUSH1 0x80 DUP5 ADD MSTORE PUSH1 0xC0 DUP4 ADD MSTORE PUSH1 0xA0 DUP3 ADD MSTORE PUSH1 0x40 DUP1 MLOAD PUSH4 0xD95BD6C9 PUSH1 0xE0 SHL DUP2 MSTORE SWAP1 MLOAD PUSH1 0x1 PUSH1 0x1 PUSH1 0xA0 SHL SUB DUP7 AND SWAP2 PUSH4 0xD95BD6C9 SWAP2 PUSH1 0x4 DUP1 DUP4 ADD SWAP3 PUSH1 0x0 SWAP3 SWAP2 SWAP1 DUP3 SWAP1 SUB ADD DUP2 DUP7 GAS STATICCALL ISZERO DUP1 ISZERO PUSH2 0xA60 JUMPI RETURNDATASIZE PUSH1 0x0 DUP1 RETURNDATACOPY RETURNDATASIZE PUSH1 0x0 REVERT JUMPDEST POP POP POP POP PUSH1 0x40 MLOAD RETURNDATASIZE PUSH1 0x0 DUP3 RETURNDATACOPY PUSH1 0x1F RETURNDATASIZE SWAP1 DUP2 ADD PUSH1 0x1F NOT AND DUP3 ADD PUSH1 0x40 MSTORE PUSH2 0xA88 SWAP2 SWAP1 DUP2 ADD SWAP1 PUSH2 0x222C JUMP JUMPDEST PUSH1 0xE0 DUP3 ADD MSTORE PUSH2 0xA98 DUP5 DUP5 DUP5 PUSH2 0x2A9 JUMP JUMPDEST PUSH2 0x100 DUP4 ADD MSTORE POP PUSH2 0xAAA DUP5 DUP5 DUP5 PUSH2 0xC2A JUMP JUMPDEST PUSH2 0x120 DUP4 ADD MSTORE POP PUSH2 0xABC DUP5 DUP5 DUP5 PUSH2 0xFEF JUMP JUMPDEST PUSH2 0x140 DUP3 ADD MSTORE PUSH2 0xACD DUP5 DUP5 DUP5 PUSH2 0x3C5 JUMP JUMPDEST PUSH2 0x160 DUP3 ADD MSTORE PUSH2 0xADE DUP5 DUP5 DUP5 PUSH2 0x70B JUMP JUMPDEST PUSH2 0x180 DUP3 ADD MSTORE SWAP4 SWAP3 POP POP POP JUMP JUMPDEST PUSH1 0x60 DUP1 DUP3 MLOAD PUSH1 0x1 PUSH1 0x1 PUSH1 0x40 SHL SUB DUP2 GT ISZERO PUSH2 0xB07 JUMPI PUSH2 0xB07 PUSH2 0x1C02 JUMP JUMPDEST PUSH1 0x40 MLOAD SWAP1 DUP1 DUP3 MSTORE DUP1 PUSH1 0x20 MUL PUSH1 0x20 ADD DUP3 ADD PUSH1 0x40 MSTORE DUP1 ISZERO PUSH2 0xB30 JUMPI DUP2 PUSH1 0x20 ADD PUSH1 0x20 DUP3 MUL DUP1 CALLDATASIZE DUP4 CALLDATACOPY ADD SWAP1 POP JUMPDEST POP SWAP2 POP DUP3 MLOAD PUSH1 0x1 PUSH1 0x1 PUSH1 0x40 SHL SUB DUP2 GT ISZERO PUSH2 0xB4C JUMPI PUSH2 0xB4C PUSH2 0x1C02 JUMP JUMPDEST PUSH1 0x40 MLOAD SWAP1 DUP1 DUP3 MSTORE DUP1 PUSH1 0x20 MUL PUSH1 0x20 ADD DUP3 ADD PUSH1 0x40 MSTORE DUP1 ISZERO PUSH2 0xB75 JUMPI DUP2 PUSH1 0x20 ADD PUSH1 0x20 DUP3 MUL DUP1 CALLDATASIZE DUP4 CALLDATACOPY ADD SWAP1 POP JUMPDEST POP SWAP1 POP PUSH1 0x0 JUMPDEST DUP4 MLOAD DUP2 LT ISZERO PUSH2 0xC24 JUMPI DUP4 DUP2 DUP2 MLOAD DUP2 LT PUSH2 0xB96 JUMPI PUSH2 0xB96 PUSH2 0x21B3 JUMP JUMPDEST PUSH1 0x20 MUL PUSH1 0x20 ADD ADD MLOAD PUSH1 0x0 ADD MLOAD DUP4 DUP3 DUP2 MLOAD DUP2 LT PUSH2 0xBB4 JUMPI PUSH2 0xBB4 PUSH2 0x21B3 JUMP JUMPDEST PUSH1 0x20 MUL PUSH1 0x20 ADD ADD SWAP1 PUSH1 0x1 PUSH1 0x1 PUSH1 0x80 SHL SUB AND SWAP1 DUP2 PUSH1 0x1 PUSH1 0x1 PUSH1 0x80 SHL SUB AND DUP2 MSTORE POP POP DUP4 DUP2 DUP2 MLOAD DUP2 LT PUSH2 0xBE6 JUMPI PUSH2 0xBE6 PUSH2 0x21B3 JUMP JUMPDEST PUSH1 0x20 MUL PUSH1 0x20 ADD ADD MLOAD PUSH1 0x20 ADD MLOAD DUP3 DUP3 DUP2 MLOAD DUP2 LT PUSH2 0xC04 JUMPI PUSH2 0xC04 PUSH2 0x21B3 JUMP JUMPDEST PUSH1 0x1 PUSH1 0x1 PUSH1 0x80 SHL SUB SWAP1 SWAP3 AND PUSH1 0x20 SWAP3 DUP4 MUL SWAP2 SWAP1 SWAP2 ADD SWAP1 SWAP2 ADD MSTORE PUSH1 0x1 ADD PUSH2 0xB7B JUMP JUMPDEST POP SWAP2 POP SWAP2 JUMP JUMPDEST PUSH1 0x60 DUP1 DUP5 PUSH1 0x1 PUSH1 0x1 PUSH1 0xA0 SHL SUB AND PUSH4 0xD95BD6C9 PUSH1 0x40 MLOAD DUP2 PUSH4 0xFFFFFFFF AND PUSH1 0xE0 SHL DUP2 MSTORE PUSH1 0x4 ADD PUSH1 0x0 PUSH1 0x40 MLOAD DUP1 DUP4 SUB DUP2 DUP7 GAS STATICCALL ISZERO DUP1 ISZERO PUSH2 0xC6B JUMPI RETURNDATASIZE PUSH1 0x0 DUP1 RETURNDATACOPY RETURNDATASIZE PUSH1 0x0 REVERT JUMPDEST POP POP POP POP PUSH1 0x40 MLOAD RETURNDATASIZE PUSH1 0x0 DUP3 RETURNDATACOPY PUSH1 0x1F RETURNDATASIZE SWAP1 DUP2 ADD PUSH1 0x1F NOT AND DUP3 ADD PUSH1 0x40 MSTORE PUSH2 0xC93 SWAP2 SWAP1 DUP2 ADD SWAP1 PUSH2 0x222C JUMP JUMPDEST SWAP2 POP PUSH1 0x0 PUSH2 0xCA2 DUP7 DUP7 DUP7 PUSH2 0xFEF JUMP JUMPDEST SWAP1 POP PUSH1 0x0 DUP2 PUSH1 0x80 ADD MLOAD PUSH1 0x2 DUP2 GT ISZERO PUSH2 0xCBC JUMPI PUSH2 0xCBC PUSH2 0x193D JUMP JUMPDEST EQ DUP1 PUSH2 0xCDD JUMPI POP PUSH1 0x2 DUP2 PUSH1 0x80 ADD MLOAD PUSH1 0x2 DUP2 GT ISZERO PUSH2 0xCDB JUMPI PUSH2 0xCDB PUSH2 0x193D JUMP JUMPDEST EQ JUMPDEST DUP1 PUSH2 0xCF1 JUMPI POP DUP1 PUSH1 0x20 ADD MLOAD PUSH4 0xFFFFFFFF AND TIMESTAMP EQ JUMPDEST ISZERO PUSH2 0xCFD JUMPI PUSH1 0x0 PUSH2 0x2FC JUMP JUMPDEST PUSH1 0x40 MLOAD PUSH4 0x96A37F9 PUSH1 0xE0 SHL DUP2 MSTORE PUSH1 0x1 PUSH1 0x1 PUSH1 0xA0 SHL SUB DUP7 DUP2 AND PUSH1 0x4 DUP4 ADD MSTORE PUSH1 0x24 DUP3 ADD DUP7 SWAP1 MSTORE DUP8 AND SWAP1 PUSH4 0x96A37F9 SWAP1 PUSH1 0x44 ADD PUSH1 0x0 PUSH1 0x40 MLOAD DUP1 DUP4 SUB DUP2 DUP7 GAS STATICCALL ISZERO DUP1 ISZERO PUSH2 0xD4A JUMPI RETURNDATASIZE PUSH1 0x0 DUP1 RETURNDATACOPY RETURNDATASIZE PUSH1 0x0 REVERT JUMPDEST POP POP POP POP PUSH1 0x40 MLOAD RETURNDATASIZE PUSH1 0x0 DUP3 RETURNDATACOPY PUSH1 0x1F RETURNDATASIZE SWAP1 DUP2 ADD PUSH1 0x1F NOT AND DUP3 ADD PUSH1 0x40 MSTORE PUSH2 0xD72 SWAP2 SWAP1 DUP2 ADD SWAP1 PUSH2 0x22BB JUMP JUMPDEST SWAP6 POP POP POP POP POP POP SWAP4 POP SWAP4 SWAP2 POP POP JUMP JUMPDEST PUSH1 0x40 MLOAD PUSH4 0x1327D7FB PUSH1 0xE0 SHL DUP2 MSTORE PUSH1 0x1 PUSH1 0x1 PUSH1 0xA0 SHL SUB DUP4 DUP2 AND PUSH1 0x4 DUP4 ADD MSTORE PUSH1 0x24 DUP3 ADD DUP4 SWAP1 MSTORE PUSH1 0x0 SWAP2 DUP3 SWAP2 DUP7 AND SWAP1 PUSH4 0x1327D7FB SWAP1 PUSH1 0x44 ADD PUSH1 0x0 PUSH1 0x40 MLOAD DUP1 DUP4 SUB DUP2 DUP7 GAS STATICCALL ISZERO DUP1 ISZERO PUSH2 0xDD3 JUMPI RETURNDATASIZE PUSH1 0x0 DUP1 RETURNDATACOPY RETURNDATASIZE PUSH1 0x0 REVERT JUMPDEST POP POP POP POP PUSH1 0x40 MLOAD RETURNDATASIZE PUSH1 0x0 DUP3 RETURNDATACOPY PUSH1 0x1F RETURNDATASIZE SWAP1 DUP2 ADD PUSH1 0x1F NOT AND DUP3 ADD PUSH1 0x40 MSTORE PUSH2 0xDFB SWAP2 SWAP1 DUP2 ADD SWAP1 PUSH2 0x2066 JUMP JUMPDEST PUSH1 0x40 MLOAD PUSH4 0x69EEAF6B PUSH1 0xE1 SHL DUP2 MSTORE PUSH1 0x1 PUSH1 0x1 PUSH1 0xA0 SHL SUB DUP7 DUP2 AND PUSH1 0x4 DUP4 ADD MSTORE PUSH1 0x24 DUP3 ADD DUP7 SWAP1 MSTORE SWAP2 SWAP3 POP SWAP1 DUP7 AND SWAP1 PUSH4 0xD3DD5ED6 SWAP1 PUSH1 0x44 ADD PUSH1 0x20 PUSH1 0x40 MLOAD DUP1 DUP4 SUB DUP2 DUP7 GAS STATICCALL ISZERO DUP1 ISZERO PUSH2 0xE4C JUMPI RETURNDATASIZE PUSH1 0x0 DUP1 RETURNDATACOPY RETURNDATASIZE PUSH1 0x0 REVERT JUMPDEST POP POP POP POP PUSH1 0x40 MLOAD RETURNDATASIZE PUSH1 0x1F NOT PUSH1 0x1F DUP3 ADD AND DUP3 ADD DUP1 PUSH1 0x40 MSTORE POP DUP2 ADD SWAP1 PUSH2 0xE70 SWAP2 SWAP1 PUSH2 0x219A JUMP JUMPDEST SWAP2 POP PUSH1 0x0 DUP6 PUSH1 0x1 PUSH1 0x1 PUSH1 0xA0 SHL SUB AND PUSH4 0xD95BD6C9 PUSH1 0x40 MLOAD DUP2 PUSH4 0xFFFFFFFF AND PUSH1 0xE0 SHL DUP2 MSTORE PUSH1 0x4 ADD PUSH1 0x0 PUSH1 0x40 MLOAD DUP1 DUP4 SUB DUP2 DUP7 GAS STATICCALL ISZERO DUP1 ISZERO PUSH2 0xEB2 JUMPI RETURNDATASIZE PUSH1 0x0 DUP1 RETURNDATACOPY RETURNDATASIZE PUSH1 0x0 REVERT JUMPDEST POP POP POP POP PUSH1 0x40 MLOAD RETURNDATASIZE PUSH1 0x0 DUP3 RETURNDATACOPY PUSH1 0x1F RETURNDATASIZE SWAP1 DUP2 ADD PUSH1 0x1F NOT AND DUP3 ADD PUSH1 0x40 MSTORE PUSH2 0xEDA SWAP2 SWAP1 DUP2 ADD SWAP1 PUSH2 0x222C JUMP JUMPDEST PUSH1 0xC0 DUP4 ADD MLOAD SWAP1 SWAP2 POP PUSH1 0x0 JUMPDEST DUP2 MLOAD DUP2 LT ISZERO PUSH2 0xFE4 JUMPI PUSH32 0x0 PUSH1 0x1 PUSH1 0x1 PUSH1 0xA0 SHL SUB AND PUSH4 0x5C2B3991 DUP5 DUP4 DUP2 MLOAD DUP2 LT PUSH2 0xF2F JUMPI PUSH2 0xF2F PUSH2 0x21B3 JUMP JUMPDEST PUSH1 0x20 MUL PUSH1 0x20 ADD ADD MLOAD PUSH1 0x40 MLOAD DUP3 PUSH4 0xFFFFFFFF AND PUSH1 0xE0 SHL DUP2 MSTORE PUSH1 0x4 ADD PUSH2 0xF62 SWAP2 SWAP1 PUSH1 0x1 PUSH1 0x1 PUSH1 0xA0 SHL SUB SWAP2 SWAP1 SWAP2 AND DUP2 MSTORE PUSH1 0x20 ADD SWAP1 JUMP JUMPDEST PUSH1 0x20 PUSH1 0x40 MLOAD DUP1 DUP4 SUB DUP2 DUP7 GAS STATICCALL ISZERO DUP1 ISZERO PUSH2 0xF7F JUMPI RETURNDATASIZE PUSH1 0x0 DUP1 RETURNDATACOPY RETURNDATASIZE PUSH1 0x0 REVERT JUMPDEST POP POP POP POP PUSH1 0x40 MLOAD RETURNDATASIZE PUSH1 0x1F NOT PUSH1 0x1F DUP3 ADD AND DUP3 ADD DUP1 PUSH1 0x40 MSTORE POP DUP2 ADD SWAP1 PUSH2 0xFA3 SWAP2 SWAP1 PUSH2 0x219A JUMP JUMPDEST DUP3 DUP3 DUP2 MLOAD DUP2 LT PUSH2 0xFB5 JUMPI PUSH2 0xFB5 PUSH2 0x21B3 JUMP JUMPDEST PUSH1 0x20 MUL PUSH1 0x20 ADD ADD MLOAD PUSH1 0x1 PUSH1 0x1 PUSH1 0x80 SHL SUB AND PUSH2 0xFD0 SWAP2 SWAP1 PUSH2 0x231E JUMP JUMPDEST PUSH2 0xFDA SWAP1 DUP7 PUSH2 0x2219 JUMP JUMPDEST SWAP5 POP PUSH1 0x1 ADD PUSH2 0xEE5 JUMP JUMPDEST POP POP POP POP SWAP4 SWAP3 POP POP POP JUMP JUMPDEST PUSH2 0xFF7 PUSH2 0x171F JUMP JUMPDEST PUSH1 0x40 MLOAD PUSH4 0x1327D7FB PUSH1 0xE0 SHL DUP2 MSTORE PUSH1 0x1 PUSH1 0x1 PUSH1 0xA0 SHL SUB DUP5 DUP2 AND PUSH1 0x4 DUP4 ADD MSTORE PUSH1 0x24 DUP3 ADD DUP5 SWAP1 MSTORE DUP6 AND SWAP1 PUSH4 0x1327D7FB SWAP1 PUSH1 0x44 ADD PUSH1 0x0 PUSH1 0x40 MLOAD DUP1 DUP4 SUB DUP2 DUP7 GAS STATICCALL ISZERO DUP1 ISZERO PUSH2 0x1044 JUMPI RETURNDATASIZE PUSH1 0x0 DUP1 RETURNDATACOPY RETURNDATASIZE PUSH1 0x0 REVERT JUMPDEST POP POP POP POP PUSH1 0x40 MLOAD RETURNDATASIZE PUSH1 0x0 DUP3 RETURNDATACOPY PUSH1 0x1F RETURNDATASIZE SWAP1 DUP2 ADD PUSH1 0x1F NOT AND DUP3 ADD PUSH1 0x40 MSTORE PUSH2 0x703 SWAP2 SWAP1 DUP2 ADD SWAP1 PUSH2 0x2066 JUMP JUMPDEST PUSH1 0x0 DUP1 PUSH1 0x0 PUSH2 0x107C DUP7 DUP7 DUP7 PUSH2 0x2A9 JUMP JUMPDEST SWAP2 POP SWAP2 POP PUSH1 0x0 PUSH32 0x0 PUSH1 0x1 PUSH1 0x1 PUSH1 0xA0 SHL SUB AND PUSH4 0x5675ECBE DUP5 PUSH1 0x40 MLOAD DUP3 PUSH4 0xFFFFFFFF AND PUSH1 0xE0 SHL DUP2 MSTORE PUSH1 0x4 ADD PUSH2 0x10CE SWAP2 SWAP1 PUSH2 0x2335 JUMP JUMPDEST PUSH1 0x0 PUSH1 0x40 MLOAD DUP1 DUP4 SUB DUP2 DUP7 GAS STATICCALL ISZERO DUP1 ISZERO PUSH2 0x10EB JUMPI RETURNDATASIZE PUSH1 0x0 DUP1 RETURNDATACOPY RETURNDATASIZE PUSH1 0x0 REVERT JUMPDEST POP POP POP POP PUSH1 0x40 MLOAD RETURNDATASIZE PUSH1 0x0 DUP3 RETURNDATACOPY PUSH1 0x1F RETURNDATASIZE SWAP1 DUP2 ADD PUSH1 0x1F NOT AND DUP3 ADD PUSH1 0x40 MSTORE PUSH2 0x1113 SWAP2 SWAP1 DUP2 ADD SWAP1 PUSH2 0x2348 JUMP JUMPDEST SWAP1 POP PUSH1 0x0 JUMPDEST DUP4 MLOAD DUP2 LT ISZERO PUSH2 0xFE4 JUMPI PUSH1 0x0 DUP4 DUP3 DUP2 MLOAD DUP2 LT PUSH2 0x1135 JUMPI PUSH2 0x1135 PUSH2 0x21B3 JUMP JUMPDEST PUSH1 0x20 MUL PUSH1 0x20 ADD ADD MLOAD PUSH1 0x1 PUSH1 0x1 PUSH1 0x80 SHL SUB AND GT ISZERO PUSH2 0x11A0 JUMPI DUP2 DUP2 DUP2 MLOAD DUP2 LT PUSH2 0x115E JUMPI PUSH2 0x115E PUSH2 0x21B3 JUMP JUMPDEST PUSH1 0x20 MUL PUSH1 0x20 ADD ADD MLOAD DUP4 DUP3 DUP2 MLOAD DUP2 LT PUSH2 0x1178 JUMPI PUSH2 0x1178 PUSH2 0x21B3 JUMP JUMPDEST PUSH1 0x20 MUL PUSH1 0x20 ADD ADD MLOAD PUSH1 0x1 PUSH1 0x1 PUSH1 0x80 SHL SUB AND PUSH2 0x1193 SWAP2 SWAP1 PUSH2 0x231E JUMP JUMPDEST PUSH2 0x119D SWAP1 DUP7 PUSH2 0x2219 JUMP JUMPDEST SWAP5 POP JUMPDEST PUSH1 0x1 ADD PUSH2 0x1118 JUMP JUMPDEST PUSH1 0x60 DUP1 PUSH1 0x0 DUP1 PUSH2 0x11B9 DUP8 DUP8 DUP8 PUSH2 0xFEF JUMP JUMPDEST SWAP1 POP PUSH1 0x0 DUP2 PUSH1 0x80 ADD MLOAD PUSH1 0x2 DUP2 GT ISZERO PUSH2 0x11D3 JUMPI PUSH2 0x11D3 PUSH2 0x193D JUMP JUMPDEST EQ DUP1 PUSH2 0x11F4 JUMPI POP PUSH1 0x2 DUP2 PUSH1 0x80 ADD MLOAD PUSH1 0x2 DUP2 GT ISZERO PUSH2 0x11F2 JUMPI PUSH2 0x11F2 PUSH2 0x193D JUMP JUMPDEST EQ JUMPDEST DUP1 PUSH2 0x1208 JUMPI POP DUP1 PUSH1 0x20 ADD MLOAD PUSH4 0xFFFFFFFF AND TIMESTAMP EQ JUMPDEST ISZERO PUSH2 0x1230 JUMPI POP POP PUSH1 0x40 DUP1 MLOAD PUSH1 0x0 DUP1 DUP3 MSTORE PUSH1 0x20 DUP3 ADD DUP2 DUP2 MSTORE DUP3 DUP5 ADD SWAP1 SWAP4 MSTORE SWAP1 SWAP4 POP SWAP1 SWAP2 POP PUSH2 0x13E3 JUMP JUMPDEST DUP7 PUSH1 0x1 PUSH1 0x1 PUSH1 0xA0 SHL SUB AND PUSH4 0xD95BD6C9 PUSH1 0x40 MLOAD DUP2 PUSH4 0xFFFFFFFF AND PUSH1 0xE0 SHL DUP2 MSTORE PUSH1 0x4 ADD PUSH1 0x0 PUSH1 0x40 MLOAD DUP1 DUP4 SUB DUP2 DUP7 GAS STATICCALL ISZERO DUP1 ISZERO PUSH2 0x126E JUMPI RETURNDATASIZE PUSH1 0x0 DUP1 RETURNDATACOPY RETURNDATASIZE PUSH1 0x0 REVERT JUMPDEST POP POP POP POP PUSH1 0x40 MLOAD RETURNDATASIZE PUSH1 0x0 DUP3 RETURNDATACOPY PUSH1 0x1F RETURNDATASIZE SWAP1 DUP2 ADD PUSH1 0x1F NOT AND DUP3 ADD PUSH1 0x40 MSTORE PUSH2 0x1296 SWAP2 SWAP1 DUP2 ADD SWAP1 PUSH2 0x222C JUMP JUMPDEST SWAP4 POP PUSH1 0x0 PUSH2 0x12A5 DUP9 DUP9 DUP9 PUSH2 0x70B JUMP JUMPDEST PUSH1 0x40 DUP1 MLOAD PUSH1 0x2 DUP1 DUP3 MSTORE PUSH1 0x60 DUP3 ADD DUP4 MSTORE SWAP3 SWAP4 POP SWAP2 SWAP1 PUSH1 0x20 DUP4 ADD SWAP1 DUP1 CALLDATASIZE DUP4 CALLDATACOPY ADD SWAP1 POP POP SWAP4 POP PUSH1 0x0 PUSH2 0x12D7 DUP4 PUSH1 0xA0 ADD MLOAD PUSH2 0xAEB JUMP JUMPDEST POP SWAP1 POP PUSH1 0x0 JUMPDEST DUP6 MLOAD DUP2 LT ISZERO PUSH2 0x1362 JUMPI PUSH2 0x1311 DUP3 DUP3 DUP2 MLOAD DUP2 LT PUSH2 0x12FB JUMPI PUSH2 0x12FB PUSH2 0x21B3 JUMP JUMPDEST PUSH1 0x20 MUL PUSH1 0x20 ADD ADD MLOAD PUSH1 0x1 PUSH1 0x1 PUSH1 0x80 SHL SUB AND PUSH2 0x1504 JUMP JUMPDEST PUSH2 0x1333 DUP5 DUP4 DUP2 MLOAD DUP2 LT PUSH2 0x1326 JUMPI PUSH2 0x1326 PUSH2 0x21B3 JUMP JUMPDEST PUSH1 0x20 MUL PUSH1 0x20 ADD ADD MLOAD PUSH2 0x1504 JUMP JUMPDEST PUSH2 0x133D SWAP2 SWAP1 PUSH2 0x237C JUMP JUMPDEST DUP7 DUP3 DUP2 MLOAD DUP2 LT PUSH2 0x134F JUMPI PUSH2 0x134F PUSH2 0x21B3 JUMP JUMPDEST PUSH1 0x20 SWAP1 DUP2 MUL SWAP2 SWAP1 SWAP2 ADD ADD MSTORE PUSH1 0x1 ADD PUSH2 0x12DD JUMP JUMPDEST POP PUSH1 0x40 MLOAD PUSH4 0x96A37F9 PUSH1 0xE0 SHL DUP2 MSTORE PUSH1 0x1 PUSH1 0x1 PUSH1 0xA0 SHL SUB DUP10 DUP2 AND PUSH1 0x4 DUP4 ADD MSTORE PUSH1 0x24 DUP3 ADD DUP10 SWAP1 MSTORE DUP11 AND SWAP1 PUSH4 0x96A37F9 SWAP1 PUSH1 0x44 ADD PUSH1 0x0 PUSH1 0x40 MLOAD DUP1 DUP4 SUB DUP2 DUP7 GAS STATICCALL ISZERO DUP1 ISZERO PUSH2 0x13B0 JUMPI RETURNDATASIZE PUSH1 0x0 DUP1 RETURNDATACOPY RETURNDATASIZE PUSH1 0x0 REVERT JUMPDEST POP POP POP POP PUSH1 0x40 MLOAD RETURNDATASIZE PUSH1 0x0 DUP3 RETURNDATACOPY PUSH1 0x1F RETURNDATASIZE SWAP1 DUP2 ADD PUSH1 0x1F NOT AND DUP3 ADD PUSH1 0x40 MSTORE PUSH2 0x13D8 SWAP2 SWAP1 DUP2 ADD SWAP1 PUSH2 0x22BB JUMP JUMPDEST POP SWAP3 SWAP7 POP POP POP POP POP POP POP JUMPDEST SWAP4 POP SWAP4 POP SWAP4 SWAP1 POP JUMP JUMPDEST PUSH1 0x40 DUP1 MLOAD DUP1 DUP3 ADD SWAP1 SWAP2 MSTORE PUSH1 0x60 DUP1 DUP3 MSTORE PUSH1 0x20 DUP3 ADD MSTORE DUP2 DUP1 PUSH1 0x20 ADD SWAP1 MLOAD DUP2 ADD SWAP1 PUSH2 0x1414 SWAP2 SWAP1 PUSH2 0x23A3 JUMP JUMPDEST SWAP3 SWAP2 POP POP JUMP JUMPDEST PUSH1 0x0 PUSH3 0xFFFFFF DUP3 GT ISZERO PUSH2 0x1483 JUMPI PUSH1 0x40 MLOAD PUSH3 0x461BCD PUSH1 0xE5 SHL DUP2 MSTORE PUSH1 0x20 PUSH1 0x4 DUP3 ADD MSTORE PUSH1 0x26 PUSH1 0x24 DUP3 ADD MSTORE PUSH32 0x53616665436173743A2076616C756520646F65736E27742066697420696E2032 PUSH1 0x44 DUP3 ADD MSTORE PUSH6 0x342062697473 PUSH1 0xD0 SHL PUSH1 0x64 DUP3 ADD MSTORE PUSH1 0x84 ADD JUMPDEST PUSH1 0x40 MLOAD DUP1 SWAP2 SUB SWAP1 REVERT JUMPDEST POP SWAP1 JUMP JUMPDEST PUSH1 0x0 PUSH1 0x1 PUSH1 0x1 PUSH1 0x80 SHL SUB DUP5 AND PUSH1 0x80 DUP6 SWAP1 SHR DUP3 DUP1 DUP4 ISZERO PUSH2 0x14BF JUMPI PUSH2 0x14BC PUSH2 0x14B7 DUP9 PUSH1 0x1 PUSH1 0x1 PUSH1 0x80 SHL SUB DUP8 AND DUP10 PUSH2 0x156E JUMP JUMPDEST PUSH2 0x1598 JUMP JUMPDEST SWAP2 POP JUMPDEST PUSH1 0x1 PUSH1 0x1 PUSH1 0x80 SHL SUB DUP4 AND ISZERO PUSH2 0x14E8 JUMPI PUSH2 0x14E5 PUSH2 0x14B7 DUP9 PUSH1 0x1 PUSH1 0x1 PUSH1 0x80 SHL SUB DUP7 AND DUP10 PUSH2 0x156E JUMP JUMPDEST SWAP1 POP JUMPDEST PUSH1 0x80 DUP2 SWAP1 SHL PUSH1 0x1 PUSH1 0x1 PUSH1 0x80 SHL SUB DUP4 AND OR SWAP9 SWAP8 POP POP POP POP POP POP POP POP JUMP JUMPDEST PUSH1 0x0 PUSH1 0x1 PUSH1 0x1 PUSH1 0xFF SHL SUB DUP3 GT ISZERO PUSH2 0x1483 JUMPI PUSH1 0x40 MLOAD PUSH3 0x461BCD PUSH1 0xE5 SHL DUP2 MSTORE PUSH1 0x20 PUSH1 0x4 DUP3 ADD MSTORE PUSH1 0x28 PUSH1 0x24 DUP3 ADD MSTORE PUSH32 0x53616665436173743A2076616C756520646F65736E27742066697420696E2061 PUSH1 0x44 DUP3 ADD MSTORE PUSH8 0x371034B73A191A9B PUSH1 0xC1 SHL PUSH1 0x64 DUP3 ADD MSTORE PUSH1 0x84 ADD PUSH2 0x147A JUMP JUMPDEST PUSH1 0x0 DUP1 PUSH1 0x0 PUSH2 0x157D DUP7 DUP7 PUSH2 0x15C7 JUMP JUMPDEST SWAP2 POP SWAP2 POP PUSH2 0x158E DUP7 DUP7 DUP7 DUP6 DUP6 PUSH2 0x15E6 JUMP JUMPDEST SWAP7 SWAP6 POP POP POP POP POP POP JUMP JUMPDEST DUP1 PUSH1 0x1 PUSH1 0x1 PUSH1 0x80 SHL SUB DUP2 AND DUP2 EQ PUSH2 0x15C2 JUMPI PUSH1 0x40 MLOAD PUSH4 0x2F45DB3D PUSH1 0xE2 SHL DUP2 MSTORE PUSH1 0x4 ADD PUSH1 0x40 MLOAD DUP1 SWAP2 SUB SWAP1 REVERT JUMPDEST SWAP2 SWAP1 POP JUMP JUMPDEST PUSH1 0x0 DUP1 PUSH1 0x0 NOT DUP4 DUP6 MULMOD DUP4 DUP6 MUL SWAP3 POP DUP3 DUP2 LT DUP4 DUP3 SUB SUB SWAP2 POP POP SWAP3 POP SWAP3 SWAP1 POP JUMP JUMPDEST PUSH1 0x0 DUP2 PUSH1 0x0 SUB PUSH2 0x1607 JUMPI DUP4 DUP4 DUP2 PUSH2 0x15FF JUMPI PUSH2 0x15FF PUSH2 0x2433 JUMP JUMPDEST DIV SWAP1 POP PUSH2 0x168D JUMP JUMPDEST DUP4 DUP3 LT PUSH2 0x1627 JUMPI PUSH1 0x40 MLOAD PUSH4 0x13EAE715 PUSH1 0xE0 SHL DUP2 MSTORE PUSH1 0x4 ADD PUSH1 0x40 MLOAD DUP1 SWAP2 SUB SWAP1 REVERT JUMPDEST PUSH1 0x0 DUP5 DUP7 DUP9 MULMOD PUSH1 0x1 DUP7 NOT DUP2 ADD DUP8 AND SWAP7 DUP8 SWAP1 DIV SWAP7 PUSH1 0x0 DUP2 SWAP1 SUB DUP2 SWAP1 DIV SWAP1 SWAP2 ADD DUP7 DUP4 GT SWAP1 SWAP6 SUB SWAP5 DUP6 MUL SWAP2 SWAP1 SWAP6 SUB SWAP5 SWAP1 SWAP5 DIV SWAP4 SWAP1 SWAP4 OR SWAP3 POP POP PUSH1 0x2 PUSH1 0x3 DUP5 MUL DUP2 XOR DUP1 DUP6 MUL DUP3 SUB MUL DUP1 DUP6 MUL DUP3 SUB MUL DUP1 DUP6 MUL DUP3 SUB MUL DUP1 DUP6 MUL DUP3 SUB MUL DUP1 DUP6 MUL DUP3 SUB MUL DUP1 DUP6 MUL SWAP1 SWAP2 SUB MUL DUP3 MUL JUMPDEST SWAP6 SWAP5 POP POP POP POP POP JUMP JUMPDEST PUSH1 0x40 MLOAD DUP1 PUSH2 0x1A0 ADD PUSH1 0x40 MSTORE DUP1 PUSH1 0x0 DUP2 MSTORE PUSH1 0x20 ADD PUSH1 0x0 DUP2 MSTORE PUSH1 0x20 ADD PUSH1 0x0 DUP2 MSTORE PUSH1 0x20 ADD PUSH1 0x0 DUP2 MSTORE PUSH1 0x20 ADD PUSH1 0x0 DUP2 MSTORE PUSH1 0x20 ADD PUSH1 0x60 DUP2 MSTORE PUSH1 0x20 ADD PUSH1 0x60 DUP2 MSTORE PUSH1 0x20 ADD PUSH1 0x60 DUP2 MSTORE PUSH1 0x20 ADD PUSH1 0x60 DUP2 MSTORE PUSH1 0x20 ADD PUSH1 0x60 DUP2 MSTORE PUSH1 0x20 ADD PUSH2 0x16F0 PUSH2 0x171F JUMP JUMPDEST DUP2 MSTORE PUSH1 0x20 ADD PUSH2 0x1712 PUSH1 0x40 MLOAD DUP1 PUSH1 0x40 ADD PUSH1 0x40 MSTORE DUP1 PUSH1 0x60 DUP2 MSTORE PUSH1 0x20 ADD PUSH1 0x60 DUP2 MSTORE POP SWAP1 JUMP JUMPDEST DUP2 MSTORE PUSH1 0x20 ADD PUSH1 0x60 DUP2 MSTORE POP SWAP1 JUMP JUMPDEST PUSH1 0x40 DUP1 MLOAD PUSH2 0x120 DUP2 ADD DUP3 MSTORE PUSH1 0x0 DUP1 DUP3 MSTORE PUSH1 0x20 DUP3 ADD DUP2 SWAP1 MSTORE SWAP2 DUP2 ADD DUP3 SWAP1 MSTORE PUSH1 0x60 DUP2 ADD DUP3 SWAP1 MSTORE SWAP1 PUSH1 0x80 DUP3 ADD SWAP1 DUP2 MSTORE PUSH1 0x20 ADD PUSH1 0x60 DUP2 MSTORE PUSH1 0x20 ADD PUSH1 0x60 DUP2 MSTORE PUSH1 0x20 ADD PUSH1 0x60 DUP2 MSTORE PUSH1 0x20 ADD PUSH1 0x0 DUP2 MSTORE POP SWAP1 JUMP JUMPDEST PUSH1 0x1 PUSH1 0x1 PUSH1 0xA0 SHL SUB DUP2 AND DUP2 EQ PUSH2 0x1780 JUMPI PUSH1 0x0 DUP1 REVERT JUMPDEST POP JUMP JUMPDEST PUSH1 0x0 DUP1 PUSH1 0x0 PUSH1 0x60 DUP5 DUP7 SUB SLT ISZERO PUSH2 0x1798 JUMPI PUSH1 0x0 DUP1 REVERT JUMPDEST DUP4 CALLDATALOAD PUSH2 0x17A3 DUP2 PUSH2 0x176B JUMP JUMPDEST SWAP3 POP PUSH1 0x20 DUP5 ADD CALLDATALOAD PUSH2 0x17B3 DUP2 PUSH2 0x176B JUMP JUMPDEST SWAP3 SWAP6 SWAP3 SWAP5 POP POP POP PUSH1 0x40 SWAP2 SWAP1 SWAP2 ADD CALLDATALOAD SWAP1 JUMP JUMPDEST PUSH1 0x0 DUP2 MLOAD DUP1 DUP5 MSTORE PUSH1 0x20 DUP1 DUP6 ADD SWAP5 POP DUP1 DUP5 ADD PUSH1 0x0 JUMPDEST DUP4 DUP2 LT ISZERO PUSH2 0x17FD JUMPI DUP2 MLOAD PUSH1 0x1 PUSH1 0x1 PUSH1 0xA0 SHL SUB AND DUP8 MSTORE SWAP6 DUP3 ADD SWAP6 SWAP1 DUP3 ADD SWAP1 PUSH1 0x1 ADD PUSH2 0x17D8 JUMP JUMPDEST POP SWAP5 SWAP6 SWAP5 POP POP POP POP POP JUMP JUMPDEST PUSH1 0x0 DUP2 MLOAD DUP1 DUP5 MSTORE PUSH1 0x20 DUP1 DUP6 ADD SWAP5 POP DUP1 DUP5 ADD PUSH1 0x0 JUMPDEST DUP4 DUP2 LT ISZERO PUSH2 0x17FD JUMPI DUP2 MLOAD PUSH1 0x1 PUSH1 0x1 PUSH1 0x80 SHL SUB AND DUP8 MSTORE SWAP6 DUP3 ADD SWAP6 SWAP1 DUP3 ADD SWAP1 PUSH1 0x1 ADD PUSH2 0x181C JUMP JUMPDEST PUSH1 0x40 DUP2 MSTORE PUSH1 0x0 PUSH2 0x1854 PUSH1 0x40 DUP4 ADD DUP6 PUSH2 0x17C4 JUMP JUMPDEST DUP3 DUP2 SUB PUSH1 0x20 DUP5 ADD MSTORE PUSH2 0x45F DUP2 DUP6 PUSH2 0x1808 JUMP JUMPDEST PUSH1 0x0 DUP2 MLOAD DUP1 DUP5 MSTORE PUSH1 0x20 DUP1 DUP6 ADD SWAP5 POP DUP1 DUP5 ADD PUSH1 0x0 JUMPDEST DUP4 DUP2 LT ISZERO PUSH2 0x17FD JUMPI DUP2 MLOAD DUP8 MSTORE SWAP6 DUP3 ADD SWAP6 SWAP1 DUP3 ADD SWAP1 PUSH1 0x1 ADD PUSH2 0x187A JUMP JUMPDEST PUSH1 0x0 DUP2 MLOAD PUSH1 0x40 DUP5 MSTORE PUSH2 0x18AB PUSH1 0x40 DUP6 ADD DUP3 PUSH2 0x1866 JUMP JUMPDEST SWAP1 POP PUSH1 0x20 DUP4 ADD MLOAD DUP5 DUP3 SUB PUSH1 0x20 DUP7 ADD MSTORE PUSH2 0x168D DUP3 DUP3 PUSH2 0x1866 JUMP JUMPDEST PUSH1 0x20 DUP2 MSTORE PUSH1 0x0 PUSH2 0x463 PUSH1 0x20 DUP4 ADD DUP5 PUSH2 0x1896 JUMP JUMPDEST PUSH1 0x0 DUP1 PUSH1 0x0 DUP1 PUSH1 0x80 DUP6 DUP8 SUB SLT ISZERO PUSH2 0x18ED JUMPI PUSH1 0x0 DUP1 REVERT JUMPDEST DUP5 CALLDATALOAD PUSH2 0x18F8 DUP2 PUSH2 0x176B JUMP JUMPDEST SWAP4 POP PUSH1 0x20 DUP6 ADD CALLDATALOAD PUSH2 0x1908 DUP2 PUSH2 0x176B JUMP JUMPDEST SWAP3 POP PUSH1 0x40 DUP6 ADD CALLDATALOAD SWAP2 POP PUSH1 0x60 DUP6 ADD CALLDATALOAD PUSH2 0x191F DUP2 PUSH2 0x176B JUMP JUMPDEST SWAP4 SWAP7 SWAP3 SWAP6 POP SWAP1 SWAP4 POP POP JUMP JUMPDEST PUSH1 0x20 DUP2 MSTORE PUSH1 0x0 PUSH2 0x463 PUSH1 0x20 DUP4 ADD DUP5 PUSH2 0x1866 JUMP JUMPDEST PUSH4 0x4E487B71 PUSH1 0xE0 SHL PUSH1 0x0 MSTORE PUSH1 0x21 PUSH1 0x4 MSTORE PUSH1 0x24 PUSH1 0x0 REVERT JUMPDEST PUSH1 0x3 DUP2 LT PUSH2 0x1971 JUMPI PUSH4 0x4E487B71 PUSH1 0xE0 SHL PUSH1 0x0 MSTORE PUSH1 0x21 PUSH1 0x4 MSTORE PUSH1 0x24 PUSH1 0x0 REVERT JUMPDEST SWAP1 MSTORE JUMP JUMPDEST PUSH1 0x0 DUP2 MLOAD DUP1 DUP5 MSTORE PUSH1 0x20 DUP1 DUP6 ADD SWAP5 POP DUP1 DUP5 ADD PUSH1 0x0 JUMPDEST DUP4 DUP2 LT ISZERO PUSH2 0x17FD JUMPI DUP2 MLOAD DUP1 MLOAD PUSH1 0x1 PUSH1 0x1 PUSH1 0x80 SHL SUB SWAP1 DUP2 AND DUP10 MSTORE SWAP1 DUP5 ADD MLOAD AND DUP4 DUP9 ADD MSTORE PUSH1 0x40 SWAP1 SWAP7 ADD SWAP6 SWAP1 DUP3 ADD SWAP1 PUSH1 0x1 ADD PUSH2 0x1989 JUMP JUMPDEST PUSH1 0x0 JUMPDEST DUP4 DUP2 LT ISZERO PUSH2 0x19D8 JUMPI DUP2 DUP2 ADD MLOAD DUP4 DUP3 ADD MSTORE PUSH1 0x20 ADD PUSH2 0x19C0 JUMP JUMPDEST POP POP PUSH1 0x0 SWAP2 ADD MSTORE JUMP JUMPDEST PUSH1 0x0 DUP2 MLOAD DUP1 DUP5 MSTORE PUSH2 0x19F9 DUP2 PUSH1 0x20 DUP7 ADD PUSH1 0x20 DUP7 ADD PUSH2 0x19BD JUMP JUMPDEST PUSH1 0x1F ADD PUSH1 0x1F NOT AND SWAP3 SWAP1 SWAP3 ADD PUSH1 0x20 ADD SWAP3 SWAP2 POP POP JUMP JUMPDEST DUP1 MLOAD PUSH1 0x1 PUSH1 0x1 PUSH1 0x80 SHL SUB AND DUP3 MSTORE PUSH1 0x0 PUSH2 0x120 PUSH1 0x20 DUP4 ADD MLOAD PUSH2 0x1A36 PUSH1 0x20 DUP7 ADD DUP3 PUSH4 0xFFFFFFFF AND SWAP1 MSTORE JUMP JUMPDEST POP PUSH1 0x40 DUP4 ADD MLOAD PUSH2 0x1A4E PUSH1 0x40 DUP7 ADD DUP3 PUSH4 0xFFFFFFFF AND SWAP1 MSTORE JUMP JUMPDEST POP PUSH1 0x60 DUP4 ADD MLOAD PUSH2 0x1A66 PUSH1 0x60 DUP7 ADD DUP3 PUSH4 0xFFFFFFFF AND SWAP1 MSTORE JUMP JUMPDEST POP PUSH1 0x80 DUP4 ADD MLOAD PUSH2 0x1A79 PUSH1 0x80 DUP7 ADD DUP3 PUSH2 0x1953 JUMP JUMPDEST POP PUSH1 0xA0 DUP4 ADD MLOAD DUP2 PUSH1 0xA0 DUP7 ADD MSTORE PUSH2 0x1A91 DUP3 DUP7 ADD DUP3 PUSH2 0x1975 JUMP JUMPDEST SWAP2 POP POP PUSH1 0xC0 DUP4 ADD MLOAD DUP5 DUP3 SUB PUSH1 0xC0 DUP7 ADD MSTORE PUSH2 0x1AAB DUP3 DUP3 PUSH2 0x1808 JUMP JUMPDEST SWAP2 POP POP PUSH1 0xE0 DUP4 ADD MLOAD DUP5 DUP3 SUB PUSH1 0xE0 DUP7 ADD MSTORE PUSH2 0x1AC5 DUP3 DUP3 PUSH2 0x19E1 JUMP JUMPDEST PUSH2 0x100 SWAP5 DUP6 ADD MLOAD SWAP6 SWAP1 SWAP5 ADD SWAP5 SWAP1 SWAP5 MSTORE POP SWAP1 SWAP3 SWAP2 POP POP JUMP JUMPDEST PUSH1 0x20 DUP2 MSTORE DUP2 MLOAD PUSH1 0x20 DUP3 ADD MSTORE PUSH1 0x20 DUP3 ADD MLOAD PUSH1 0x40 DUP3 ADD MSTORE PUSH1 0x40 DUP3 ADD MLOAD PUSH1 0x60 DUP3 ADD MSTORE PUSH1 0x60 DUP3 ADD MLOAD PUSH1 0x80 DUP3 ADD MSTORE PUSH1 0x80 DUP3 ADD MLOAD PUSH1 0xA0 DUP3 ADD MSTORE PUSH1 0x0 PUSH1 0xA0 DUP4 ADD MLOAD PUSH2 0x1A0 DUP1 PUSH1 0xC0 DUP6 ADD MSTORE PUSH2 0x1B2D PUSH2 0x1C0 DUP6 ADD DUP4 PUSH2 0x17C4 JUMP JUMPDEST SWAP2 POP PUSH1 0xC0 DUP6 ADD MLOAD PUSH1 0x1F NOT DUP1 DUP7 DUP6 SUB ADD PUSH1 0xE0 DUP8 ADD MSTORE PUSH2 0x1B4B DUP5 DUP4 PUSH2 0x1866 JUMP JUMPDEST SWAP4 POP PUSH1 0xE0 DUP8 ADD MLOAD SWAP2 POP PUSH2 0x100 DUP2 DUP8 DUP7 SUB ADD DUP2 DUP9 ADD MSTORE PUSH2 0x1B6A DUP6 DUP5 PUSH2 0x17C4 JUMP JUMPDEST SWAP5 POP DUP1 DUP9 ADD MLOAD SWAP3 POP POP PUSH2 0x120 DUP2 DUP8 DUP7 SUB ADD DUP2 DUP9 ADD MSTORE PUSH2 0x1B89 DUP6 DUP5 PUSH2 0x1808 JUMP JUMPDEST SWAP5 POP DUP1 DUP9 ADD MLOAD SWAP3 POP POP PUSH2 0x140 DUP2 DUP8 DUP7 SUB ADD DUP2 DUP9 ADD MSTORE PUSH2 0x1BA8 DUP6 DUP5 PUSH2 0x1866 JUMP JUMPDEST SWAP5 POP DUP1 DUP9 ADD MLOAD SWAP3 POP POP PUSH2 0x160 DUP2 DUP8 DUP7 SUB ADD DUP2 DUP9 ADD MSTORE PUSH2 0x1BC7 DUP6 DUP5 PUSH2 0x1A0D JUMP JUMPDEST SWAP5 POP DUP1 DUP9 ADD MLOAD SWAP3 POP POP PUSH2 0x180 DUP2 DUP8 DUP7 SUB ADD DUP2 DUP9 ADD MSTORE PUSH2 0x1BE6 DUP6 DUP5 PUSH2 0x1896 JUMP JUMPDEST SWAP1 DUP9 ADD MLOAD DUP8 DUP3 SUB SWAP1 SWAP3 ADD DUP5 DUP9 ADD MSTORE SWAP4 POP SWAP1 POP PUSH2 0x158E DUP4 DUP3 PUSH2 0x1866 JUMP JUMPDEST PUSH4 0x4E487B71 PUSH1 0xE0 SHL PUSH1 0x0 MSTORE PUSH1 0x41 PUSH1 0x4 MSTORE PUSH1 0x24 PUSH1 0x0 REVERT JUMPDEST PUSH1 0x40 DUP1 MLOAD SWAP1 DUP2 ADD PUSH1 0x1 PUSH1 0x1 PUSH1 0x40 SHL SUB DUP2 GT DUP3 DUP3 LT OR ISZERO PUSH2 0x1C3A JUMPI PUSH2 0x1C3A PUSH2 0x1C02 JUMP JUMPDEST PUSH1 0x40 MSTORE SWAP1 JUMP JUMPDEST PUSH1 0x40 MLOAD PUSH2 0x120 DUP2 ADD PUSH1 0x1 PUSH1 0x1 PUSH1 0x40 SHL SUB DUP2 GT DUP3 DUP3 LT OR ISZERO PUSH2 0x1C3A JUMPI PUSH2 0x1C3A PUSH2 0x1C02 JUMP JUMPDEST PUSH1 0x40 MLOAD PUSH1 0x1F DUP3 ADD PUSH1 0x1F NOT AND DUP2 ADD PUSH1 0x1 PUSH1 0x1 PUSH1 0x40 SHL SUB DUP2 GT DUP3 DUP3 LT OR ISZERO PUSH2 0x1C8B JUMPI PUSH2 0x1C8B PUSH2 0x1C02 JUMP JUMPDEST PUSH1 0x40 MSTORE SWAP2 SWAP1 POP JUMP JUMPDEST PUSH1 0x0 PUSH1 0x1 PUSH1 0x1 PUSH1 0x40 SHL SUB DUP3 GT ISZERO PUSH2 0x1CAC JUMPI PUSH2 0x1CAC PUSH2 0x1C02 JUMP JUMPDEST POP PUSH1 0x5 SHL PUSH1 0x20 ADD SWAP1 JUMP JUMPDEST PUSH1 0x1 PUSH1 0x1 PUSH1 0x80 SHL SUB DUP2 AND DUP2 EQ PUSH2 0x1780 JUMPI PUSH1 0x0 DUP1 REVERT JUMPDEST PUSH1 0x0 PUSH1 0x20 DUP1 DUP4 DUP6 SUB SLT ISZERO PUSH2 0x1CDE JUMPI PUSH1 0x0 DUP1 REVERT JUMPDEST DUP3 CALLDATALOAD PUSH1 0x1 PUSH1 0x1 PUSH1 0x40 SHL SUB DUP2 GT ISZERO PUSH2 0x1CF4 JUMPI PUSH1 0x0 DUP1 REVERT JUMPDEST DUP4 ADD PUSH1 0x1F DUP2 ADD DUP6 SGT PUSH2 0x1D05 JUMPI PUSH1 0x0 DUP1 REVERT JUMPDEST DUP1 CALLDATALOAD PUSH2 0x1D18 PUSH2 0x1D13 DUP3 PUSH2 0x1C93 JUMP JUMPDEST PUSH2 0x1C63 JUMP JUMPDEST DUP2 DUP2 MSTORE PUSH1 0x6 SWAP2 SWAP1 SWAP2 SHL DUP3 ADD DUP4 ADD SWAP1 DUP4 DUP2 ADD SWAP1 DUP8 DUP4 GT ISZERO PUSH2 0x1D37 JUMPI PUSH1 0x0 DUP1 REVERT JUMPDEST SWAP3 DUP5 ADD SWAP3 JUMPDEST DUP3 DUP5 LT ISZERO PUSH2 0x5BA JUMPI PUSH1 0x40 DUP5 DUP10 SUB SLT ISZERO PUSH2 0x1D55 JUMPI PUSH1 0x0 DUP1 DUP2 REVERT JUMPDEST PUSH2 0x1D5D PUSH2 0x1C18 JUMP JUMPDEST DUP5 CALLDATALOAD PUSH2 0x1D68 DUP2 PUSH2 0x1CB6 JUMP JUMPDEST DUP2 MSTORE DUP5 DUP7 ADD CALLDATALOAD PUSH2 0x1D77 DUP2 PUSH2 0x1CB6 JUMP JUMPDEST DUP2 DUP8 ADD MSTORE DUP3 MSTORE PUSH1 0x40 SWAP4 SWAP1 SWAP4 ADD SWAP3 SWAP1 DUP5 ADD SWAP1 PUSH2 0x1D3C JUMP JUMPDEST PUSH1 0x40 DUP2 MSTORE PUSH1 0x0 PUSH2 0x1854 PUSH1 0x40 DUP4 ADD DUP6 PUSH2 0x1808 JUMP JUMPDEST PUSH1 0x40 DUP2 MSTORE PUSH1 0x0 PUSH2 0x1DB3 PUSH1 0x40 DUP4 ADD DUP6 PUSH2 0x17C4 JUMP JUMPDEST DUP3 DUP2 SUB PUSH1 0x20 DUP5 ADD MSTORE PUSH2 0x45F DUP2 DUP6 PUSH2 0x1866 JUMP JUMPDEST PUSH1 0x20 DUP2 MSTORE PUSH1 0x0 PUSH2 0x463 PUSH1 0x20 DUP4 ADD DUP5 PUSH2 0x1A0D JUMP JUMPDEST PUSH1 0x60 DUP2 MSTORE PUSH1 0x0 PUSH2 0x1DEB PUSH1 0x60 DUP4 ADD DUP7 PUSH2 0x17C4 JUMP JUMPDEST DUP3 DUP2 SUB PUSH1 0x20 DUP5 ADD MSTORE PUSH2 0x1DFD DUP2 DUP7 PUSH2 0x1866 JUMP JUMPDEST SWAP2 POP POP DUP3 PUSH1 0x40 DUP4 ADD MSTORE SWAP5 SWAP4 POP POP POP POP JUMP JUMPDEST PUSH1 0x0 DUP3 PUSH1 0x1F DUP4 ADD SLT PUSH2 0x1E1F JUMPI PUSH1 0x0 DUP1 REVERT JUMPDEST DUP2 MLOAD PUSH1 0x20 PUSH2 0x1E2F PUSH2 0x1D13 DUP4 PUSH2 0x1C93 JUMP JUMPDEST DUP3 DUP2 MSTORE PUSH1 0x5 SWAP3 SWAP1 SWAP3 SHL DUP5 ADD DUP2 ADD SWAP2 DUP2 DUP2 ADD SWAP1 DUP7 DUP5 GT ISZERO PUSH2 0x1E4E JUMPI PUSH1 0x0 DUP1 REVERT JUMPDEST DUP3 DUP7 ADD JUMPDEST DUP5 DUP2 LT ISZERO PUSH2 0x1E72 JUMPI DUP1 MLOAD PUSH2 0x1E65 DUP2 PUSH2 0x176B JUMP JUMPDEST DUP4 MSTORE SWAP2 DUP4 ADD SWAP2 DUP4 ADD PUSH2 0x1E52 JUMP JUMPDEST POP SWAP7 SWAP6 POP POP POP POP POP POP JUMP JUMPDEST DUP1 MLOAD PUSH2 0x15C2 DUP2 PUSH2 0x1CB6 JUMP JUMPDEST PUSH1 0x0 DUP3 PUSH1 0x1F DUP4 ADD SLT PUSH2 0x1E99 JUMPI PUSH1 0x0 DUP1 REVERT JUMPDEST DUP2 MLOAD PUSH1 0x20 PUSH2 0x1EA9 PUSH2 0x1D13 DUP4 PUSH2 0x1C93 JUMP JUMPDEST DUP3 DUP2 MSTORE PUSH1 0x5 SWAP3 SWAP1 SWAP3 SHL DUP5 ADD DUP2 ADD SWAP2 DUP2 DUP2 ADD SWAP1 DUP7 DUP5 GT ISZERO PUSH2 0x1EC8 JUMPI PUSH1 0x0 DUP1 REVERT JUMPDEST DUP3 DUP7 ADD JUMPDEST DUP5 DUP2 LT ISZERO PUSH2 0x1E72 JUMPI DUP1 MLOAD PUSH2 0x1EDF DUP2 PUSH2 0x1CB6 JUMP JUMPDEST DUP4 MSTORE SWAP2 DUP4 ADD SWAP2 DUP4 ADD PUSH2 0x1ECC JUMP JUMPDEST PUSH1 0x0 DUP1 PUSH1 0x40 DUP4 DUP6 SUB SLT ISZERO PUSH2 0x1EFF JUMPI PUSH1 0x0 DUP1 REVERT JUMPDEST DUP3 MLOAD PUSH1 0x1 PUSH1 0x1 PUSH1 0x40 SHL SUB DUP1 DUP3 GT ISZERO PUSH2 0x1F16 JUMPI PUSH1 0x0 DUP1 REVERT JUMPDEST PUSH2 0x1F22 DUP7 DUP4 DUP8 ADD PUSH2 0x1E0E JUMP JUMPDEST SWAP4 POP PUSH1 0x20 DUP6 ADD MLOAD SWAP2 POP DUP1 DUP3 GT ISZERO PUSH2 0x1F38 JUMPI PUSH1 0x0 DUP1 REVERT JUMPDEST POP PUSH2 0x1F45 DUP6 DUP3 DUP7 ADD PUSH2 0x1E88 JUMP JUMPDEST SWAP2 POP POP SWAP3 POP SWAP3 SWAP1 POP JUMP JUMPDEST DUP1 MLOAD PUSH4 0xFFFFFFFF DUP2 AND DUP2 EQ PUSH2 0x15C2 JUMPI PUSH1 0x0 DUP1 REVERT JUMPDEST DUP1 MLOAD PUSH1 0x3 DUP2 LT PUSH2 0x15C2 JUMPI PUSH1 0x0 DUP1 REVERT JUMPDEST PUSH1 0x0 DUP3 PUSH1 0x1F DUP4 ADD SLT PUSH2 0x1F83 JUMPI PUSH1 0x0 DUP1 REVERT JUMPDEST DUP2 MLOAD PUSH1 0x20 PUSH2 0x1F93 PUSH2 0x1D13 DUP4 PUSH2 0x1C93 JUMP JUMPDEST DUP3 DUP2 MSTORE PUSH1 0x6 SWAP3 SWAP1 SWAP3 SHL DUP5 ADD DUP2 ADD SWAP2 DUP2 DUP2 ADD SWAP1 DUP7 DUP5 GT ISZERO PUSH2 0x1FB2 JUMPI PUSH1 0x0 DUP1 REVERT JUMPDEST DUP3 DUP7 ADD JUMPDEST DUP5 DUP2 LT ISZERO PUSH2 0x1E72 JUMPI PUSH1 0x40 DUP2 DUP10 SUB SLT ISZERO PUSH2 0x1FCF JUMPI PUSH1 0x0 DUP1 DUP2 REVERT JUMPDEST PUSH2 0x1FD7 PUSH2 0x1C18 JUMP JUMPDEST DUP2 MLOAD PUSH2 0x1FE2 DUP2 PUSH2 0x1CB6 JUMP JUMPDEST DUP2 MSTORE DUP2 DUP6 ADD MLOAD PUSH2 0x1FF1 DUP2 PUSH2 0x1CB6 JUMP JUMPDEST DUP2 DUP7 ADD MSTORE DUP4 MSTORE SWAP2 DUP4 ADD SWAP2 PUSH1 0x40 ADD PUSH2 0x1FB6 JUMP JUMPDEST PUSH1 0x0 DUP3 PUSH1 0x1F DUP4 ADD SLT PUSH2 0x2014 JUMPI PUSH1 0x0 DUP1 REVERT JUMPDEST DUP2 MLOAD PUSH1 0x1 PUSH1 0x1 PUSH1 0x40 SHL SUB DUP2 GT ISZERO PUSH2 0x202D JUMPI PUSH2 0x202D PUSH2 0x1C02 JUMP JUMPDEST PUSH2 0x2040 PUSH1 0x1F DUP3 ADD PUSH1 0x1F NOT AND PUSH1 0x20 ADD PUSH2 0x1C63 JUMP JUMPDEST DUP2 DUP2 MSTORE DUP5 PUSH1 0x20 DUP4 DUP7 ADD ADD GT ISZERO PUSH2 0x2055 JUMPI PUSH1 0x0 DUP1 REVERT JUMPDEST PUSH2 0x703 DUP3 PUSH1 0x20 DUP4 ADD PUSH1 0x20 DUP8 ADD PUSH2 0x19BD JUMP JUMPDEST PUSH1 0x0 PUSH1 0x20 DUP3 DUP5 SUB SLT ISZERO PUSH2 0x2078 JUMPI PUSH1 0x0 DUP1 REVERT JUMPDEST DUP2 MLOAD PUSH1 0x1 PUSH1 0x1 PUSH1 0x40 SHL SUB DUP1 DUP3 GT ISZERO PUSH2 0x208F JUMPI PUSH1 0x0 DUP1 REVERT JUMPDEST SWAP1 DUP4 ADD SWAP1 PUSH2 0x120 DUP3 DUP7 SUB SLT ISZERO PUSH2 0x20A4 JUMPI PUSH1 0x0 DUP1 REVERT JUMPDEST PUSH2 0x20AC PUSH2 0x1C40 JUMP JUMPDEST PUSH2 0x20B5 DUP4 PUSH2 0x1E7D JUMP JUMPDEST DUP2 MSTORE PUSH2 0x20C3 PUSH1 0x20 DUP5 ADD PUSH2 0x1F4F JUMP JUMPDEST PUSH1 0x20 DUP3 ADD MSTORE PUSH2 0x20D4 PUSH1 0x40 DUP5 ADD PUSH2 0x1F4F JUMP JUMPDEST PUSH1 0x40 DUP3 ADD MSTORE PUSH2 0x20E5 PUSH1 0x60 DUP5 ADD PUSH2 0x1F4F JUMP JUMPDEST PUSH1 0x60 DUP3 ADD MSTORE PUSH2 0x20F6 PUSH1 0x80 DUP5 ADD PUSH2 0x1F63 JUMP JUMPDEST PUSH1 0x80 DUP3 ADD MSTORE PUSH1 0xA0 DUP4 ADD MLOAD DUP3 DUP2 GT ISZERO PUSH2 0x210D JUMPI PUSH1 0x0 DUP1 REVERT JUMPDEST PUSH2 0x2119 DUP8 DUP3 DUP7 ADD PUSH2 0x1F72 JUMP JUMPDEST PUSH1 0xA0 DUP4 ADD MSTORE POP PUSH1 0xC0 DUP4 ADD MLOAD DUP3 DUP2 GT ISZERO PUSH2 0x2131 JUMPI PUSH1 0x0 DUP1 REVERT JUMPDEST PUSH2 0x213D DUP8 DUP3 DUP7 ADD PUSH2 0x1E88 JUMP JUMPDEST PUSH1 0xC0 DUP4 ADD MSTORE POP PUSH1 0xE0 DUP4 ADD MLOAD DUP3 DUP2 GT ISZERO PUSH2 0x2155 JUMPI PUSH1 0x0 DUP1 REVERT JUMPDEST PUSH2 0x2161 DUP8 DUP3 DUP7 ADD PUSH2 0x2003 JUMP JUMPDEST PUSH1 0xE0 DUP4 ADD MSTORE POP PUSH2 0x100 SWAP3 DUP4 ADD MLOAD SWAP3 DUP2 ADD SWAP3 SWAP1 SWAP3 MSTORE POP SWAP4 SWAP3 POP POP POP JUMP JUMPDEST PUSH1 0x0 PUSH1 0x20 DUP3 DUP5 SUB SLT ISZERO PUSH2 0x218F JUMPI PUSH1 0x0 DUP1 REVERT JUMPDEST DUP2 MLOAD PUSH2 0x463 DUP2 PUSH2 0x176B JUMP JUMPDEST PUSH1 0x0 PUSH1 0x20 DUP3 DUP5 SUB SLT ISZERO PUSH2 0x21AC JUMPI PUSH1 0x0 DUP1 REVERT JUMPDEST POP MLOAD SWAP2 SWAP1 POP JUMP JUMPDEST PUSH4 0x4E487B71 PUSH1 0xE0 SHL PUSH1 0x0 MSTORE PUSH1 0x32 PUSH1 0x4 MSTORE PUSH1 0x24 PUSH1 0x0 REVERT JUMPDEST PUSH1 0x0 DUP1 PUSH1 0x40 DUP4 DUP6 SUB SLT ISZERO PUSH2 0x21DC JUMPI PUSH1 0x0 DUP1 REVERT JUMPDEST DUP3 MLOAD PUSH2 0x21E7 DUP2 PUSH2 0x1CB6 JUMP JUMPDEST PUSH1 0x20 DUP5 ADD MLOAD SWAP1 SWAP3 POP PUSH2 0x21F8 DUP2 PUSH2 0x1CB6 JUMP JUMPDEST DUP1 SWAP2 POP POP SWAP3 POP SWAP3 SWAP1 POP JUMP JUMPDEST PUSH4 0x4E487B71 PUSH1 0xE0 SHL PUSH1 0x0 MSTORE PUSH1 0x11 PUSH1 0x4 MSTORE PUSH1 0x24 PUSH1 0x0 REVERT JUMPDEST DUP1 DUP3 ADD DUP1 DUP3 GT ISZERO PUSH2 0x1414 JUMPI PUSH2 0x1414 PUSH2 0x2203 JUMP JUMPDEST PUSH1 0x0 PUSH1 0x20 DUP3 DUP5 SUB SLT ISZERO PUSH2 0x223E JUMPI PUSH1 0x0 DUP1 REVERT JUMPDEST DUP2 MLOAD PUSH1 0x1 PUSH1 0x1 PUSH1 0x40 SHL SUB DUP2 GT ISZERO PUSH2 0x2254 JUMPI PUSH1 0x0 DUP1 REVERT JUMPDEST PUSH2 0x703 DUP5 DUP3 DUP6 ADD PUSH2 0x1E0E JUMP JUMPDEST PUSH1 0x0 DUP3 PUSH1 0x1F DUP4 ADD SLT PUSH2 0x2271 JUMPI PUSH1 0x0 DUP1 REVERT JUMPDEST DUP2 MLOAD PUSH1 0x20 PUSH2 0x2281 PUSH2 0x1D13 DUP4 PUSH2 0x1C93 JUMP JUMPDEST DUP3 DUP2 MSTORE PUSH1 0x5 SWAP3 SWAP1 SWAP3 SHL DUP5 ADD DUP2 ADD SWAP2 DUP2 DUP2 ADD SWAP1 DUP7 DUP5 GT ISZERO PUSH2 0x22A0 JUMPI PUSH1 0x0 DUP1 REVERT JUMPDEST DUP3 DUP7 ADD JUMPDEST DUP5 DUP2 LT ISZERO PUSH2 0x1E72 JUMPI DUP1 MLOAD DUP4 MSTORE SWAP2 DUP4 ADD SWAP2 DUP4 ADD PUSH2 0x22A4 JUMP JUMPDEST PUSH1 0x0 DUP1 PUSH1 0x0 DUP1 PUSH1 0x0 PUSH1 0xA0 DUP7 DUP9 SUB SLT ISZERO PUSH2 0x22D3 JUMPI PUSH1 0x0 DUP1 REVERT JUMPDEST DUP6 MLOAD SWAP5 POP PUSH1 0x20 DUP7 ADD MLOAD SWAP4 POP PUSH1 0x40 DUP7 ADD MLOAD SWAP3 POP PUSH1 0x60 DUP7 ADD MLOAD SWAP2 POP PUSH1 0x80 DUP7 ADD MLOAD PUSH1 0x1 PUSH1 0x1 PUSH1 0x40 SHL SUB DUP2 GT ISZERO PUSH2 0x2305 JUMPI PUSH1 0x0 DUP1 REVERT JUMPDEST PUSH2 0x2311 DUP9 DUP3 DUP10 ADD PUSH2 0x2260 JUMP JUMPDEST SWAP2 POP POP SWAP3 SWAP6 POP SWAP3 SWAP6 SWAP1 SWAP4 POP JUMP JUMPDEST DUP1 DUP3 MUL DUP2 ISZERO DUP3 DUP3 DIV DUP5 EQ OR PUSH2 0x1414 JUMPI PUSH2 0x1414 PUSH2 0x2203 JUMP JUMPDEST PUSH1 0x20 DUP2 MSTORE PUSH1 0x0 PUSH2 0x463 PUSH1 0x20 DUP4 ADD DUP5 PUSH2 0x17C4 JUMP JUMPDEST PUSH1 0x0 PUSH1 0x20 DUP3 DUP5 SUB SLT ISZERO PUSH2 0x235A JUMPI PUSH1 0x0 DUP1 REVERT JUMPDEST DUP2 MLOAD PUSH1 0x1 PUSH1 0x1 PUSH1 0x40 SHL SUB DUP2 GT ISZERO PUSH2 0x2370 JUMPI PUSH1 0x0 DUP1 REVERT JUMPDEST PUSH2 0x703 DUP5 DUP3 DUP6 ADD PUSH2 0x2260 JUMP JUMPDEST DUP2 DUP2 SUB PUSH1 0x0 DUP4 SLT DUP1 ISZERO DUP4 DUP4 SGT AND DUP4 DUP4 SLT DUP3 AND OR ISZERO PUSH2 0x239C JUMPI PUSH2 0x239C PUSH2 0x2203 JUMP JUMPDEST POP SWAP3 SWAP2 POP POP JUMP JUMPDEST PUSH1 0x0 PUSH1 0x20 DUP3 DUP5 SUB SLT ISZERO PUSH2 0x23B5 JUMPI PUSH1 0x0 DUP1 REVERT JUMPDEST DUP2 MLOAD PUSH1 0x1 PUSH1 0x1 PUSH1 0x40 SHL SUB DUP1 DUP3 GT ISZERO PUSH2 0x23CC JUMPI PUSH1 0x0 DUP1 REVERT JUMPDEST SWAP1 DUP4 ADD SWAP1 PUSH1 0x40 DUP3 DUP7 SUB SLT ISZERO PUSH2 0x23E0 JUMPI PUSH1 0x0 DUP1 REVERT JUMPDEST PUSH2 0x23E8 PUSH2 0x1C18 JUMP JUMPDEST DUP3 MLOAD DUP3 DUP2 GT ISZERO PUSH2 0x23F7 JUMPI PUSH1 0x0 DUP1 REVERT JUMPDEST PUSH2 0x2403 DUP8 DUP3 DUP7 ADD PUSH2 0x2260 JUMP JUMPDEST DUP3 MSTORE POP PUSH1 0x20 DUP4 ADD MLOAD DUP3 DUP2 GT ISZERO PUSH2 0x2418 JUMPI PUSH1 0x0 DUP1 REVERT JUMPDEST PUSH2 0x2424 DUP8 DUP3 DUP7 ADD PUSH2 0x2260 JUMP JUMPDEST PUSH1 0x20 DUP4 ADD MSTORE POP SWAP6 SWAP5 POP POP POP POP POP JUMP JUMPDEST PUSH4 0x4E487B71 PUSH1 0xE0 SHL PUSH1 0x0 MSTORE PUSH1 0x12 PUSH1 0x4 MSTORE PUSH1 0x24 PUSH1 0x0 REVERT INVALID LOG2 PUSH5 0x6970667358 0x22 SLT KECCAK256 PUSH27 0x978C72D1B39AFBEF7491FEDB6722D4CD0088D9466580F86BCB3DB3 DUP7 BASEFEE 0x2C 0xAF PUSH5 0x736F6C6343 STOP ADDMOD SGT STOP CALLER ",
  "sha1": "b4cfea1cb47d8e43395d38b0e099adb05f2dc780",
  "source": "pragma solidity ^0.8.19;\n\nimport '@lib/openzeppelin-contracts/contracts/utils/math/SafeCast.sol';\n\nimport '../../../interfaces/stella-strategies/position-managers/IJoeV2_1HyperPositionManager.sol';\nimport '../../../interfaces/stella-strategies/position-managers/IBaseHyperPositionManager.sol';\n\nimport '../../../interfaces/stella-strategies/common/IConfig.sol';\nimport '../../../interfaces/stella-strategies/strategies/IBaseStrategy.sol';\n\nimport '../../../interfaces/stella-oracles/IBaseOracle.sol';\n\nimport '../../../interfaces/stella-libraries/traderjoe/v2_1/ILBPairV2_1.sol';\n\nimport '../common/LiquidationVault.sol';\nimport {BinHelper, PackedUint128Math} from './joev2-1/BinHelper.sol';\n\ncontract HyperStellaJoeV2_1Reader {\n  using SafeCast for uint;\n  using SafeCast for uint128;\n  using PackedUint128Math for bytes32;\n  using PackedUint128Math for uint128;\n  using BinHelper for bytes32;\n  struct AllData {\n    uint debtRatioE18;\n    uint positionUSDValueE36;\n    uint collateralValueE36;\n    uint borrowValueE36;\n    int netPnLE36;\n    address[] netTokenAddrs;\n    int[] netTokenAmts;\n    address[] underlyingTokens;\n    uint128[] debts;\n    uint[] sharingProfits;\n    HyperPosition positionInfo;\n    JoeV2_1ExtraPosInfo extraPosInfo;\n    uint[] spotUnderlyingAmts;\n  }\n\n  address public immutable oracle;\n\n  constructor(address _oracle) {\n    oracle = _oracle;\n  }\n\n  function getPositionInfo(\n    address _positionManager,\n    address _user,\n    uint _posId\n  ) public view returns (HyperPosition memory) {\n    return IBaseHyperPositionManager(_positionManager).getPositionInfo(_user, _posId);\n  }\n\n  //TODO: keep netTokens\n  function getPnL(\n    address _positionManager,\n    address _user,\n    uint _posId\n  ) public view returns (address[] memory tokens, int[] memory netTokens, int netPnL) {\n    HyperPosition memory pos = getPositionInfo(_positionManager, _user, _posId);\n\n    if (\n      pos.status == PositionStatus.CLOSED ||\n      pos.status == PositionStatus.LIQUIDATED ||\n      block.timestamp == pos.startTimestamp\n    ) {\n      return (new address[](0), new int[](0), 0);\n    }\n\n    tokens = IJoeV2_1HyperPositionManager(_positionManager).getUnderlyingTokens();\n    uint[] memory positionUnderlyingTokens = getPositionSpotUnderlyingTokenAmts(\n      _positionManager,\n      _user,\n      _posId\n    );\n\n    netTokens = new int[](2);\n\n    (uint128[] memory inputs, ) = getInputsAndBorrows(pos.openTokenInfos);\n    for (uint i; i < netTokens.length; ) {\n      netTokens[i] = (positionUnderlyingTokens[i]).toInt256() - inputs[i].toInt256();\n      unchecked {\n        ++i;\n      }\n    }\n\n    (netPnL, , , , ) = IBaseHyperPositionManager(_positionManager).calcProfitInfo(_user, _posId);\n  }\n\n  function getPositionSpotUnderlyingTokenAmts(\n    address _positionManager,\n    address _user,\n    uint _posId\n  ) public view returns (uint[] memory positionUnderlyingTokenAmts) {\n    JoeV2_1ExtraPosInfo memory extraPosInfo = getDecodedExtraPosInfo(\n      _positionManager,\n      _user,\n      _posId\n    );\n    address collToken = IBaseHyperPositionManager(_positionManager).collToken(); // gas saving\n    positionUnderlyingTokenAmts = new uint[](2);\n\n    for (uint i; i < extraPosInfo.binIds.length; ) {\n      (uint128 binReserveX, uint128 binReserveY) = ILBPairV2_1(collToken).getBin(\n        extraPosInfo.binIds[i].toUint24()\n      );\n      bytes32 binReserves = binReserveX.encode(binReserveY);\n      uint supply = ILBPairV2_1(collToken).totalSupply(extraPosInfo.binIds[i]);\n      bytes32 amountsOut = binReserves.getAmountOutOfBin(extraPosInfo.liquidities[i], supply);\n      (uint128 amountX, uint128 amountY) = amountsOut.decode();\n      positionUnderlyingTokenAmts[0] += amountX;\n      positionUnderlyingTokenAmts[1] += amountY;\n      unchecked {\n        ++i;\n      }\n    }\n  }\n\n  function getProfitSharing(\n    address _positionManager,\n    address _user,\n    uint _posId\n  ) public view returns (address[] memory tokens, uint[] memory sharingProfits) {\n    tokens = IBaseHyperPositionManager(_positionManager).getUnderlyingTokens();\n    HyperPosition memory pos = getPositionInfo(_positionManager, _user, _posId);\n\n    if (\n      pos.status == PositionStatus.CLOSED ||\n      pos.status == PositionStatus.LIQUIDATED ||\n      block.timestamp == pos.startTimestamp\n    ) {\n      return (new address[](0), new uint[](0));\n    }\n\n    (, , , , sharingProfits) = IBaseHyperPositionManager(_positionManager).calcProfitInfo(\n      _user,\n      _posId\n    );\n  }\n\n  function getPositionDebts(\n    address _positionManager,\n    address _user,\n    uint _posId\n  ) public view returns (address[] memory tokens, uint128[] memory debts) {\n    HyperPosition memory pos = getPositionInfo(_positionManager, _user, _posId);\n\n    if (pos.status == PositionStatus.CLOSED || pos.status == PositionStatus.LIQUIDATED) {\n      return (new address[](0), new uint128[](0));\n    }\n\n    (tokens, debts) = IBaseHyperPositionManager(_positionManager).getPositionDebts(_user, _posId);\n  }\n\n  function getPositionDebtRatioE18(\n    address _positionManager,\n    address _user,\n    uint _posId\n  ) public view returns (uint debtRatioE18) {\n    debtRatioE18 = IBaseHyperPositionManager(_positionManager).getPositionDebtRatioE18(\n      _user,\n      _posId\n    );\n  }\n\n  function getBorrowValueE36(\n    address _positionManager,\n    address _user,\n    uint _posId\n  ) public view returns (uint borrowValueE36) {\n    (address[] memory tokens, uint128[] memory debts) = getPositionDebts(\n      _positionManager,\n      _user,\n      _posId\n    );\n\n    uint[] memory tokenPriceE36s = IBaseOracle(oracle).getUSDPriceE36s(tokens);\n\n    for (uint i; i < tokens.length; ) {\n      if (debts[i] > 0) {\n        borrowValueE36 += debts[i] * tokenPriceE36s[i];\n      }\n      unchecked {\n        ++i;\n      }\n    }\n  }\n\n  function getCollateralValueE36(\n    address _positionManager,\n    address _user,\n    uint _posId\n  ) public view returns (uint collateralValueE36) {\n    HyperPosition memory pos = IBaseHyperPositionManager(_positionManager).getPositionInfo(\n      _user,\n      _posId\n    );\n\n    // lp and fee value\n    collateralValueE36 = IBaseHyperPositionManager(_positionManager).getPositionUSDValueE36(\n      _user,\n      _posId\n    );\n\n    address[] memory extraCollTokens = IBaseHyperPositionManager(_positionManager)\n      .getUnderlyingTokens();\n\n    uint128[] memory extraCollAmts = pos.extraCollAmts; // gas saving\n\n    for (uint i; i < extraCollAmts.length; ) {\n      collateralValueE36 +=\n        extraCollAmts[i] *\n        IBaseOracle(oracle).getUSDPriceE36(extraCollTokens[i]);\n      unchecked {\n        ++i;\n      }\n    }\n  }\n\n  function getPositionUSDValueE36(\n    address _positionManager,\n    address _user,\n    uint _posId\n  ) public view returns (uint positionUSDValueE36) {\n    HyperPosition memory pos = getPositionInfo(_positionManager, _user, _posId);\n\n    if (pos.status == PositionStatus.CLOSED || pos.status == PositionStatus.LIQUIDATED) {\n      return 0;\n    }\n\n    positionUSDValueE36 = IBaseHyperPositionManager(_positionManager).getPositionUSDValueE36(\n      _user,\n      _posId\n    );\n  }\n\n  function claimableAmount(\n    address _strategy,\n    address _user,\n    uint _posId,\n    address _token\n  ) public view returns (uint) {\n    address config = IBaseStrategy(_strategy).config();\n    address liquidationVault = IConfig(config).liquidationVault();\n    return LiquidationVault(liquidationVault).claimableAmts(_token, _strategy, _user, _posId);\n  }\n\n  function getDecodedExtraPosInfo(\n    address _positionManager,\n    address _user,\n    uint _posId\n  ) public view returns (JoeV2_1ExtraPosInfo memory) {\n    HyperPosition memory pos = IBaseHyperPositionManager(_positionManager).getPositionInfo(\n      _user,\n      _posId\n    );\n\n    return _getDecodedExtraPosInfo(pos.extraPosInfo);\n  }\n\n  function getAllData(\n    address _positionManager,\n    address _user,\n    uint _posId\n  ) external view returns (AllData memory allData) {\n    allData.debtRatioE18 = getPositionDebtRatioE18(_positionManager, _user, _posId);\n    allData.positionUSDValueE36 = getPositionUSDValueE36(_positionManager, _user, _posId);\n    allData.collateralValueE36 = getCollateralValueE36(_positionManager, _user, _posId);\n    allData.borrowValueE36 = getBorrowValueE36(_positionManager, _user, _posId);\n    (allData.netTokenAddrs, allData.netTokenAmts, allData.netPnLE36) = getPnL(\n      _positionManager,\n      _user,\n      _posId\n    );\n    allData.underlyingTokens = IBaseHyperPositionManager(_positionManager).getUnderlyingTokens();\n    (, allData.debts) = getPositionDebts(_positionManager, _user, _posId);\n    (, allData.sharingProfits) = getProfitSharing(_positionManager, _user, _posId);\n    allData.positionInfo = getPositionInfo(_positionManager, _user, _posId);\n    allData.extraPosInfo = getDecodedExtraPosInfo(_positionManager, _user, _posId);\n    allData.spotUnderlyingAmts = getPositionSpotUnderlyingTokenAmts(\n      _positionManager,\n      _user,\n      _posId\n    );\n  }\n\n  // ===================== internal pure =====================\n  function _getDecodedExtraPosInfo(\n    bytes memory _data\n  ) internal pure returns (JoeV2_1ExtraPosInfo memory) {\n    return abi.decode(_data, (JoeV2_1ExtraPosInfo));\n  }\n\n  // ===================== public pure =====================\n  function getInputsAndBorrows(\n    OpenTokenInfo[] memory _openTokenInfos\n  ) public pure returns (uint128[] memory inputs, uint128[] memory borrows) {\n    inputs = new uint128[](_openTokenInfos.length);\n    borrows = new uint128[](_openTokenInfos.length);\n\n    // store input amounts & borrow amounts into inputs arr and borrows arr\n    for (uint i; i < _openTokenInfos.length; ) {\n      inputs[i] = _openTokenInfos[i].inputAmt;\n      borrows[i] = _openTokenInfos[i].borrowAmt;\n      unchecked {\n        ++i;\n      }\n    }\n  }\n}\n",
  "sourcePath": "contracts/stella-strategies/helpers/HyperStellaJoeV2_1Reader.sol",
  "type": "contract"
}